{
  "address": "0x0157EDD8EA6C1aaa741FD4ECb017781920D9f36f",
  "abi": [
    {
      "inputs": [
        {
          "internalType": "string",
          "name": "name",
          "type": "string"
        },
        {
          "internalType": "string",
          "name": "symbol",
          "type": "string"
        },
        {
          "internalType": "string",
          "name": "_URI",
          "type": "string"
        },
        {
          "internalType": "string",
          "name": "_storefrontMetaURI",
          "type": "string"
        }
      ],
      "stateMutability": "nonpayable",
      "type": "constructor"
    },
    {
      "anonymous": false,
      "inputs": [
        {
          "indexed": true,
          "internalType": "address",
          "name": "owner",
          "type": "address"
        },
        {
          "indexed": true,
          "internalType": "address",
          "name": "approved",
          "type": "address"
        },
        {
          "indexed": true,
          "internalType": "uint256",
          "name": "tokenId",
          "type": "uint256"
        }
      ],
      "name": "Approval",
      "type": "event"
    },
    {
      "anonymous": false,
      "inputs": [
        {
          "indexed": true,
          "internalType": "address",
          "name": "owner",
          "type": "address"
        },
        {
          "indexed": true,
          "internalType": "address",
          "name": "operator",
          "type": "address"
        },
        {
          "indexed": false,
          "internalType": "bool",
          "name": "approved",
          "type": "bool"
        }
      ],
      "name": "ApprovalForAll",
      "type": "event"
    },
    {
      "anonymous": false,
      "inputs": [
        {
          "indexed": false,
          "internalType": "address",
          "name": "account",
          "type": "address"
        }
      ],
      "name": "Paused",
      "type": "event"
    },
    {
      "anonymous": false,
      "inputs": [
        {
          "indexed": true,
          "internalType": "bytes32",
          "name": "role",
          "type": "bytes32"
        },
        {
          "indexed": true,
          "internalType": "bytes32",
          "name": "previousAdminRole",
          "type": "bytes32"
        },
        {
          "indexed": true,
          "internalType": "bytes32",
          "name": "newAdminRole",
          "type": "bytes32"
        }
      ],
      "name": "RoleAdminChanged",
      "type": "event"
    },
    {
      "anonymous": false,
      "inputs": [
        {
          "indexed": true,
          "internalType": "bytes32",
          "name": "role",
          "type": "bytes32"
        },
        {
          "indexed": true,
          "internalType": "address",
          "name": "account",
          "type": "address"
        },
        {
          "indexed": true,
          "internalType": "address",
          "name": "sender",
          "type": "address"
        }
      ],
      "name": "RoleGranted",
      "type": "event"
    },
    {
      "anonymous": false,
      "inputs": [
        {
          "indexed": true,
          "internalType": "bytes32",
          "name": "role",
          "type": "bytes32"
        },
        {
          "indexed": true,
          "internalType": "address",
          "name": "account",
          "type": "address"
        },
        {
          "indexed": true,
          "internalType": "address",
          "name": "sender",
          "type": "address"
        }
      ],
      "name": "RoleRevoked",
      "type": "event"
    },
    {
      "anonymous": false,
      "inputs": [
        {
          "indexed": true,
          "internalType": "address",
          "name": "from",
          "type": "address"
        },
        {
          "indexed": true,
          "internalType": "address",
          "name": "to",
          "type": "address"
        },
        {
          "indexed": true,
          "internalType": "uint256",
          "name": "tokenId",
          "type": "uint256"
        }
      ],
      "name": "Transfer",
      "type": "event"
    },
    {
      "anonymous": false,
      "inputs": [
        {
          "indexed": false,
          "internalType": "address",
          "name": "account",
          "type": "address"
        }
      ],
      "name": "Unpaused",
      "type": "event"
    },
    {
      "inputs": [],
      "name": "DEFAULT_ADMIN_ROLE",
      "outputs": [
        {
          "internalType": "bytes32",
          "name": "",
          "type": "bytes32"
        }
      ],
      "stateMutability": "view",
      "type": "function"
    },
    {
      "inputs": [],
      "name": "MINTER_ROLE",
      "outputs": [
        {
          "internalType": "bytes32",
          "name": "",
          "type": "bytes32"
        }
      ],
      "stateMutability": "view",
      "type": "function"
    },
    {
      "inputs": [],
      "name": "PAUSER_ROLE",
      "outputs": [
        {
          "internalType": "bytes32",
          "name": "",
          "type": "bytes32"
        }
      ],
      "stateMutability": "view",
      "type": "function"
    },
    {
      "inputs": [
        {
          "internalType": "address",
          "name": "to",
          "type": "address"
        },
        {
          "internalType": "uint256",
          "name": "tokenId",
          "type": "uint256"
        }
      ],
      "name": "approve",
      "outputs": [],
      "stateMutability": "nonpayable",
      "type": "function"
    },
    {
      "inputs": [
        {
          "internalType": "address",
          "name": "owner",
          "type": "address"
        }
      ],
      "name": "balanceOf",
      "outputs": [
        {
          "internalType": "uint256",
          "name": "",
          "type": "uint256"
        }
      ],
      "stateMutability": "view",
      "type": "function"
    },
    {
      "inputs": [
        {
          "internalType": "uint256",
          "name": "tokenId",
          "type": "uint256"
        }
      ],
      "name": "burn",
      "outputs": [],
      "stateMutability": "nonpayable",
      "type": "function"
    },
    {
      "inputs": [
        {
          "internalType": "uint256",
          "name": "_number",
          "type": "uint256"
        },
        {
          "internalType": "address",
          "name": "_receiver",
          "type": "address"
        }
      ],
      "name": "claimReserved",
      "outputs": [],
      "stateMutability": "nonpayable",
      "type": "function"
    },
    {
      "inputs": [],
      "name": "contractURI",
      "outputs": [
        {
          "internalType": "string",
          "name": "",
          "type": "string"
        }
      ],
      "stateMutability": "view",
      "type": "function"
    },
    {
      "inputs": [],
      "name": "flipSaleStarted",
      "outputs": [],
      "stateMutability": "nonpayable",
      "type": "function"
    },
    {
      "inputs": [
        {
          "internalType": "uint256",
          "name": "tokenId",
          "type": "uint256"
        }
      ],
      "name": "getApproved",
      "outputs": [
        {
          "internalType": "address",
          "name": "",
          "type": "address"
        }
      ],
      "stateMutability": "view",
      "type": "function"
    },
    {
      "inputs": [],
      "name": "getPrice",
      "outputs": [
        {
          "internalType": "uint256",
          "name": "",
          "type": "uint256"
        }
      ],
      "stateMutability": "view",
      "type": "function"
    },
    {
      "inputs": [],
      "name": "getReservedLeft",
      "outputs": [
        {
          "internalType": "uint256",
          "name": "",
          "type": "uint256"
        }
      ],
      "stateMutability": "view",
      "type": "function"
    },
    {
      "inputs": [
        {
          "internalType": "bytes32",
          "name": "role",
          "type": "bytes32"
        }
      ],
      "name": "getRoleAdmin",
      "outputs": [
        {
          "internalType": "bytes32",
          "name": "",
          "type": "bytes32"
        }
      ],
      "stateMutability": "view",
      "type": "function"
    },
    {
      "inputs": [
        {
          "internalType": "bytes32",
          "name": "role",
          "type": "bytes32"
        },
        {
          "internalType": "address",
          "name": "account",
          "type": "address"
        }
      ],
      "name": "grantRole",
      "outputs": [],
      "stateMutability": "nonpayable",
      "type": "function"
    },
    {
      "inputs": [
        {
          "internalType": "bytes32",
          "name": "role",
          "type": "bytes32"
        },
        {
          "internalType": "address",
          "name": "account",
          "type": "address"
        }
      ],
      "name": "hasRole",
      "outputs": [
        {
          "internalType": "bool",
          "name": "",
          "type": "bool"
        }
      ],
      "stateMutability": "view",
      "type": "function"
    },
    {
      "inputs": [
        {
          "internalType": "address",
          "name": "owner",
          "type": "address"
        },
        {
          "internalType": "address",
          "name": "operator",
          "type": "address"
        }
      ],
      "name": "isApprovedForAll",
      "outputs": [
        {
          "internalType": "bool",
          "name": "",
          "type": "bool"
        }
      ],
      "stateMutability": "view",
      "type": "function"
    },
    {
      "inputs": [],
      "name": "maxSupply",
      "outputs": [
        {
          "internalType": "uint256",
          "name": "",
          "type": "uint256"
        }
      ],
      "stateMutability": "view",
      "type": "function"
    },
    {
      "inputs": [
        {
          "internalType": "uint256",
          "name": "_nbTokens",
          "type": "uint256"
        }
      ],
      "name": "mint",
      "outputs": [],
      "stateMutability": "payable",
      "type": "function"
    },
    {
      "inputs": [],
      "name": "mintToken",
      "outputs": [
        {
          "internalType": "uint256",
          "name": "",
          "type": "uint256"
        }
      ],
      "stateMutability": "payable",
      "type": "function"
    },
    {
      "inputs": [],
      "name": "name",
      "outputs": [
        {
          "internalType": "string",
          "name": "",
          "type": "string"
        }
      ],
      "stateMutability": "view",
      "type": "function"
    },
    {
      "inputs": [
        {
          "internalType": "uint256",
          "name": "tokenId",
          "type": "uint256"
        }
      ],
      "name": "ownerOf",
      "outputs": [
        {
          "internalType": "address",
          "name": "",
          "type": "address"
        }
      ],
      "stateMutability": "view",
      "type": "function"
    },
    {
      "inputs": [],
      "name": "pause",
      "outputs": [],
      "stateMutability": "nonpayable",
      "type": "function"
    },
    {
      "inputs": [],
      "name": "paused",
      "outputs": [
        {
          "internalType": "bool",
          "name": "",
          "type": "bool"
        }
      ],
      "stateMutability": "view",
      "type": "function"
    },
    {
      "inputs": [],
      "name": "price",
      "outputs": [
        {
          "internalType": "uint256",
          "name": "",
          "type": "uint256"
        }
      ],
      "stateMutability": "view",
      "type": "function"
    },
    {
      "inputs": [
        {
          "internalType": "bytes32",
          "name": "role",
          "type": "bytes32"
        },
        {
          "internalType": "address",
          "name": "account",
          "type": "address"
        }
      ],
      "name": "renounceRole",
      "outputs": [],
      "stateMutability": "nonpayable",
      "type": "function"
    },
    {
      "inputs": [
        {
          "internalType": "bytes32",
          "name": "role",
          "type": "bytes32"
        },
        {
          "internalType": "address",
          "name": "account",
          "type": "address"
        }
      ],
      "name": "revokeRole",
      "outputs": [],
      "stateMutability": "nonpayable",
      "type": "function"
    },
    {
      "inputs": [
        {
          "internalType": "address",
          "name": "to",
          "type": "address"
        },
        {
          "internalType": "uint256",
          "name": "_nbTokens",
          "type": "uint256"
        }
      ],
      "name": "safeMint",
      "outputs": [],
      "stateMutability": "nonpayable",
      "type": "function"
    },
    {
      "inputs": [
        {
          "internalType": "address",
          "name": "from",
          "type": "address"
        },
        {
          "internalType": "address",
          "name": "to",
          "type": "address"
        },
        {
          "internalType": "uint256",
          "name": "tokenId",
          "type": "uint256"
        }
      ],
      "name": "safeTransferFrom",
      "outputs": [],
      "stateMutability": "nonpayable",
      "type": "function"
    },
    {
      "inputs": [
        {
          "internalType": "address",
          "name": "from",
          "type": "address"
        },
        {
          "internalType": "address",
          "name": "to",
          "type": "address"
        },
        {
          "internalType": "uint256",
          "name": "tokenId",
          "type": "uint256"
        },
        {
          "internalType": "bytes",
          "name": "_data",
          "type": "bytes"
        }
      ],
      "name": "safeTransferFrom",
      "outputs": [],
      "stateMutability": "nonpayable",
      "type": "function"
    },
    {
      "inputs": [],
      "name": "saleStarted",
      "outputs": [
        {
          "internalType": "bool",
          "name": "",
          "type": "bool"
        }
      ],
      "stateMutability": "view",
      "type": "function"
    },
    {
      "inputs": [
        {
          "internalType": "address",
          "name": "operator",
          "type": "address"
        },
        {
          "internalType": "bool",
          "name": "approved",
          "type": "bool"
        }
      ],
      "name": "setApprovalForAll",
      "outputs": [],
      "stateMutability": "nonpayable",
      "type": "function"
    },
    {
      "inputs": [
        {
          "internalType": "string",
          "name": "_URI",
          "type": "string"
        }
      ],
      "name": "setBaseURI",
      "outputs": [],
      "stateMutability": "nonpayable",
      "type": "function"
    },
    {
      "inputs": [
        {
          "internalType": "uint256",
          "name": "_newPrice",
          "type": "uint256"
        }
      ],
      "name": "setPrice",
      "outputs": [],
      "stateMutability": "nonpayable",
      "type": "function"
    },
    {
      "inputs": [
        {
          "internalType": "uint256",
          "name": "_newReserved",
          "type": "uint256"
        }
      ],
      "name": "setReserved",
      "outputs": [],
      "stateMutability": "nonpayable",
      "type": "function"
    },
    {
      "inputs": [],
      "name": "setStartingIndex",
      "outputs": [],
      "stateMutability": "nonpayable",
      "type": "function"
    },
    {
      "inputs": [
        {
          "internalType": "string",
          "name": "_URI",
          "type": "string"
        }
      ],
      "name": "setStorefrontMetaURI",
      "outputs": [],
      "stateMutability": "nonpayable",
      "type": "function"
    },
    {
      "inputs": [],
      "name": "startingIndex",
      "outputs": [
        {
          "internalType": "uint256",
          "name": "",
          "type": "uint256"
        }
      ],
      "stateMutability": "view",
      "type": "function"
    },
    {
      "inputs": [
        {
          "internalType": "bytes4",
          "name": "interfaceId",
          "type": "bytes4"
        }
      ],
      "name": "supportsInterface",
      "outputs": [
        {
          "internalType": "bool",
          "name": "",
          "type": "bool"
        }
      ],
      "stateMutability": "view",
      "type": "function"
    },
    {
      "inputs": [],
      "name": "symbol",
      "outputs": [
        {
          "internalType": "string",
          "name": "",
          "type": "string"
        }
      ],
      "stateMutability": "view",
      "type": "function"
    },
    {
      "inputs": [
        {
          "internalType": "uint256",
          "name": "index",
          "type": "uint256"
        }
      ],
      "name": "tokenByIndex",
      "outputs": [
        {
          "internalType": "uint256",
          "name": "",
          "type": "uint256"
        }
      ],
      "stateMutability": "view",
      "type": "function"
    },
    {
      "inputs": [
        {
          "internalType": "address",
          "name": "owner",
          "type": "address"
        },
        {
          "internalType": "uint256",
          "name": "index",
          "type": "uint256"
        }
      ],
      "name": "tokenOfOwnerByIndex",
      "outputs": [
        {
          "internalType": "uint256",
          "name": "",
          "type": "uint256"
        }
      ],
      "stateMutability": "view",
      "type": "function"
    },
    {
      "inputs": [
        {
          "internalType": "uint256",
          "name": "tokenId",
          "type": "uint256"
        }
      ],
      "name": "tokenURI",
      "outputs": [
        {
          "internalType": "string",
          "name": "",
          "type": "string"
        }
      ],
      "stateMutability": "view",
      "type": "function"
    },
    {
      "inputs": [],
      "name": "totalSupply",
      "outputs": [
        {
          "internalType": "uint256",
          "name": "",
          "type": "uint256"
        }
      ],
      "stateMutability": "view",
      "type": "function"
    },
    {
      "inputs": [
        {
          "internalType": "address",
          "name": "from",
          "type": "address"
        },
        {
          "internalType": "address",
          "name": "to",
          "type": "address"
        },
        {
          "internalType": "uint256",
          "name": "tokenId",
          "type": "uint256"
        }
      ],
      "name": "transferFrom",
      "outputs": [],
      "stateMutability": "nonpayable",
      "type": "function"
    },
    {
      "inputs": [],
      "name": "unpause",
      "outputs": [],
      "stateMutability": "nonpayable",
      "type": "function"
    },
    {
      "inputs": [
        {
          "internalType": "address",
          "name": "_owner",
          "type": "address"
        }
      ],
      "name": "walletOfOwner",
      "outputs": [
        {
          "internalType": "uint256[]",
          "name": "",
          "type": "uint256[]"
        }
      ],
      "stateMutability": "view",
      "type": "function"
    },
    {
      "inputs": [
        {
          "internalType": "address",
          "name": "_receiver",
          "type": "address"
        }
      ],
      "name": "withdraw",
      "outputs": [],
      "stateMutability": "nonpayable",
      "type": "function"
    }
  ],
  "transactionHash": "0x270edaa55daef1ed1583555d689e4606ea1fe9a5d76b48e2cc83bc173a630b69",
  "args": [
    "NFT Token",
    "NFT",
    "ipfs://nft/tokenURI",
    "ipfs://nft/storeMetaData"
  ],
  "solcInputHash": "59b75b0746a0b2e78a0d78d8d7fe2fc5",
  "bytecode": "0x608060405267011c37937e080000600f5560c860105560146011553480156200002757600080fd5b5060405162003799380380620037998339810160408190526200004a916200033a565b83518490849062000063906000906020850190620001e1565b50805162000079906001906020840190620001e1565b5050600b805460ff19908116909155601480549091169055508151620000a7906012906020850190620001e1565b508051620000bd906013906020840190620001e1565b50620000cb6000336200012d565b620000f77f65d7a28e3265b37a6474929f336521b332c1681b933f6cb9f3376673440d862a336200012d565b620001237f9f2df0fed2c77648de5860a4cc508cd0818c85b8b8a1ab4ceeef8d981c8956a6336200012d565b5050505062000441565b6200013982826200013d565b5050565b6000828152600c602090815260408083206001600160a01b038516845290915290205460ff1662000139576000828152600c602090815260408083206001600160a01b03851684529091529020805460ff191660011790556200019d3390565b6001600160a01b0316816001600160a01b0316837f2f8788117e7eff1d82e926ec794901d17c78024a50270940304540a733656f0d60405160405180910390a45050565b828054620001ef90620003ee565b90600052602060002090601f0160209004810192826200021357600085556200025e565b82601f106200022e57805160ff19168380011785556200025e565b828001600101855582156200025e579182015b828111156200025e57825182559160200191906001019062000241565b506200026c92915062000270565b5090565b5b808211156200026c576000815560010162000271565b600082601f83011262000298578081fd5b81516001600160401b0380821115620002b557620002b56200042b565b604051601f8301601f19908116603f01168101908282118183101715620002e057620002e06200042b565b81604052838152602092508683858801011115620002fc578485fd5b8491505b838210156200031f578582018301518183018401529082019062000300565b838211156200033057848385830101525b9695505050505050565b6000806000806080858703121562000350578384fd5b84516001600160401b038082111562000367578586fd5b620003758883890162000287565b955060208701519150808211156200038b578485fd5b620003998883890162000287565b94506040870151915080821115620003af578384fd5b620003bd8883890162000287565b93506060870151915080821115620003d3578283fd5b50620003e28782880162000287565b91505092959194509250565b600181811c908216806200040357607f821691505b602082108114156200042557634e487b7160e01b600052602260045260246000fd5b50919050565b634e487b7160e01b600052604160045260246000fd5b61334880620004516000396000f3fe6080604052600436106102885760003560e01c80638456cb591161015a578063b88d4fde116100c1578063d5abeb011161007a578063d5abeb0114610783578063daa023aa14610799578063e63ab1e9146107ae578063e8a3d485146107e2578063e985e9c5146107f7578063e98665501461084057610288565b8063b88d4fde146106b9578063c47cee70146106d9578063c87b56dd146106f9578063cb774d4714610719578063d53913931461072f578063d547741f1461076357610288565b8063a035b1fe11610113578063a035b1fe1461061b578063a0712d6814610631578063a144819414610644578063a217fddf14610664578063a22cb46514610679578063b0e1d7f31461069957610288565b80638456cb5914610587578063899d7b381461059c57806391b7f5ed146105b157806391d14854146105d157806395d89b41146105f157806398d5fdca1461060657610288565b806336568abe116101fe57806351cff8d9116101b757806351cff8d9146104d757806355f804b3146104f75780635c474f9e146105175780635c975abb1461052f5780636352211e1461054757806370a082311461056757610288565b806336568abe146104155780633f4ba83a1461043557806342842e0e1461044a57806342966c681461046a578063438b63001461048a5780634f6ccce7146104b757610288565b80632004ffd9116102505780632004ffd91461035d57806323b872dd14610365578063248a9ca3146103855780632d6e71b6146103b55780632f2ff15d146103d55780632f745c59146103f557610288565b806301ffc9a71461028d57806306fdde03146102c2578063081812fc146102e4578063095ea7b31461031c57806318160ddd1461033e575b600080fd5b34801561029957600080fd5b506102ad6102a8366004612e72565b610855565b60405190151581526020015b60405180910390f35b3480156102ce57600080fd5b506102d7610868565b6040516102b9919061308c565b3480156102f057600080fd5b506103046102ff366004612e38565b6108fa565b6040516001600160a01b0390911681526020016102b9565b34801561032857600080fd5b5061033c610337366004612e0f565b610987565b005b34801561034a57600080fd5b506008545b6040519081526020016102b9565b61034f610a9d565b34801561037157600080fd5b5061033c610380366004612d21565b610c02565b34801561039157600080fd5b5061034f6103a0366004612e38565b6000908152600c602052604090206001015490565b3480156103c157600080fd5b5061033c6103d0366004612e38565b610c34565b3480156103e157600080fd5b5061033c6103f0366004612e50565b610c47565b34801561040157600080fd5b5061034f610410366004612e0f565b610c6d565b34801561042157600080fd5b5061033c610430366004612e50565b610d03565b34801561044157600080fd5b5061033c610d81565b34801561045657600080fd5b5061033c610465366004612d21565b610db7565b34801561047657600080fd5b5061033c610485366004612e38565b610dd2565b34801561049657600080fd5b506104aa6104a5366004612cd5565b610e49565b6040516102b99190613048565b3480156104c357600080fd5b5061034f6104d2366004612e38565b610f07565b3480156104e357600080fd5b5061033c6104f2366004612cd5565b610fa8565b34801561050357600080fd5b5061033c610512366004612eaa565b610fe4565b34801561052357600080fd5b5060145460ff166102ad565b34801561053b57600080fd5b50600b5460ff166102ad565b34801561055357600080fd5b50610304610562366004612e38565b611003565b34801561057357600080fd5b5061034f610582366004612cd5565b61107a565b34801561059357600080fd5b5061033c611101565b3480156105a857600080fd5b5061033c611134565b3480156105bd57600080fd5b5061033c6105cc366004612e38565b61116f565b3480156105dd57600080fd5b506102ad6105ec366004612e50565b611181565b3480156105fd57600080fd5b506102d76111ac565b34801561061257600080fd5b50600f5461034f565b34801561062757600080fd5b5061034f600f5481565b61033c61063f366004612e38565b6111bb565b34801561065057600080fd5b5061033c61065f366004612e0f565b611398565b34801561067057600080fd5b5061034f600081565b34801561068557600080fd5b5061033c610694366004612dd5565b611519565b3480156106a557600080fd5b5061033c6106b4366004612e50565b6115eb565b3480156106c557600080fd5b5061033c6106d4366004612d5c565b6116aa565b3480156106e557600080fd5b5061033c6106f4366004612eaa565b6116e2565b34801561070557600080fd5b506102d7610714366004612e38565b611701565b34801561072557600080fd5b5061034f600e5481565b34801561073b57600080fd5b5061034f7f9f2df0fed2c77648de5860a4cc508cd0818c85b8b8a1ab4ceeef8d981c8956a681565b34801561076f57600080fd5b5061033c61077e366004612e50565b61170c565b34801561078f57600080fd5b5061034f61271081565b3480156107a557600080fd5b5061034f611732565b3480156107ba57600080fd5b5061034f7f65d7a28e3265b37a6474929f336521b332c1681b933f6cb9f3376673440d862a81565b3480156107ee57600080fd5b506102d7611789565b34801561080357600080fd5b506102ad610812366004612cef565b6001600160a01b03918216600090815260056020908152604080832093909416825291909152205460ff1690565b34801561084c57600080fd5b5061033c611798565b60006108608261187d565b90505b919050565b60606000805461087790613250565b80601f01602080910402602001604051908101604052809291908181526020018280546108a390613250565b80156108f05780601f106108c5576101008083540402835291602001916108f0565b820191906000526020600020905b8154815290600101906020018083116108d357829003601f168201915b5050505050905090565b6000610905826118a2565b61096b5760405162461bcd60e51b815260206004820152602c60248201527f4552433732313a20617070726f76656420717565727920666f72206e6f6e657860448201526b34b9ba32b73a103a37b5b2b760a11b60648201526084015b60405180910390fd5b506000908152600460205260409020546001600160a01b031690565b600061099282611003565b9050806001600160a01b0316836001600160a01b03161415610a005760405162461bcd60e51b815260206004820152602160248201527f4552433732313a20617070726f76616c20746f2063757272656e74206f776e656044820152603960f91b6064820152608401610962565b336001600160a01b0382161480610a1c5750610a1c8133610812565b610a8e5760405162461bcd60e51b815260206004820152603860248201527f4552433732313a20617070726f76652063616c6c6572206973206e6f74206f7760448201527f6e6572206e6f7220617070726f76656420666f7220616c6c00000000000000006064820152608401610962565b610a9883836118bf565b505050565b600034600f541115610ae75760405162461bcd60e51b8152602060048201526013602482015272416d6f756e742073656e7420746f6f206c6f7760681b6044820152606401610962565b610af5600d80546001019055565b6000610b00600d5490565b9050610b0c338261192d565b610be181610bdc60128054610b2090613250565b80601f0160208091040260200160405190810160405280929190818152602001828054610b4c90613250565b8015610b995780601f10610b6e57610100808354040283529160200191610b99565b820191906000526020600020905b815481529060010190602001808311610b7c57829003601f168201915b5050505050604051806040016040528060018152602001602f60f81b8152508560405180604001604052806005815260200164173539b7b760d91b815250611947565b61197a565b601454610bfd9061010090046001600160a01b03166001611519565b905090565b610c0d335b82611a05565b610c295760405162461bcd60e51b815260040161096290613113565b610a98838383611aeb565b6000610c4181335b611c96565b50601055565b6000828152600c6020526040902060010154610c638133610c3c565b610a988383611cfa565b6000610c788361107a565b8210610cda5760405162461bcd60e51b815260206004820152602b60248201527f455243373231456e756d657261626c653a206f776e657220696e646578206f7560448201526a74206f6620626f756e647360a81b6064820152608401610962565b506001600160a01b03919091166000908152600660209081526040808320938352929052205490565b6001600160a01b0381163314610d735760405162461bcd60e51b815260206004820152602f60248201527f416363657373436f6e74726f6c3a2063616e206f6e6c792072656e6f756e636560448201526e103937b632b9903337b91039b2b63360891b6064820152608401610962565b610d7d8282611d80565b5050565b7f65d7a28e3265b37a6474929f336521b332c1681b933f6cb9f3376673440d862a610dac8133610c3c565b610db4611de7565b50565b610a98838383604051806020016040528060008152506116aa565b610ddb33610c07565b610e405760405162461bcd60e51b815260206004820152603060248201527f4552433732314275726e61626c653a2063616c6c6572206973206e6f74206f7760448201526f1b995c881b9bdc88185c1c1c9bdd995960821b6064820152608401610962565b610db481611e7a565b60606000610e568361107a565b905060008167ffffffffffffffff811115610e8157634e487b7160e01b600052604160045260246000fd5b604051908082528060200260200182016040528015610eaa578160200160208202803683370190505b50905060005b82811015610eff57610ec28582610c6d565b828281518110610ee257634e487b7160e01b600052603260045260246000fd5b602090810291909101015280610ef78161328b565b915050610eb0565b509392505050565b6000610f1260085490565b8210610f755760405162461bcd60e51b815260206004820152602c60248201527f455243373231456e756d657261626c653a20676c6f62616c20696e646578206f60448201526b7574206f6620626f756e647360a01b6064820152608401610962565b60088281548110610f9657634e487b7160e01b600052603260045260246000fd5b90600052602060002001549050919050565b6000610fb48133610c3c565b60405147906001600160a01b0384169082156108fc029083906000818181858888f19350505050610a9857600080fd5b6000610ff08133610c3c565b8151610a98906012906020850190612b77565b6000818152600260205260408120546001600160a01b0316806108605760405162461bcd60e51b815260206004820152602960248201527f4552433732313a206f776e657220717565727920666f72206e6f6e657869737460448201526832b73a103a37b5b2b760b91b6064820152608401610962565b60006001600160a01b0382166110e55760405162461bcd60e51b815260206004820152602a60248201527f4552433732313a2062616c616e636520717565727920666f7220746865207a65604482015269726f206164647265737360b01b6064820152608401610962565b506001600160a01b031660009081526003602052604090205490565b7f65d7a28e3265b37a6474929f336521b332c1681b933f6cb9f3376673440d862a61112c8133610c3c565b610db4611e83565b60006111408133610c3c565b6014805460ff19811660ff918216159081179092551680156111625750600e54155b15610db457610db4611798565b600061117b8133610c3c565b50600f55565b6000918252600c602090815260408084206001600160a01b0393909316845291905290205460ff1690565b60606001805461087790613250565b60145460ff166112085760405162461bcd60e51b815260206004820152601860248201527714d85b19481a185cc81b9bdd081e595d081cdd185c9d195960421b6044820152606401610962565b600061121360085490565b90506011548211156112375760405162461bcd60e51b815260040161096290613164565b601054611246906127106131f6565b61125083836131ab565b11156112985760405162461bcd60e51b81526020600482015260176024820152762737ba1032b737bab3b4102a37b5b2b739903632b33a1760491b6044820152606401610962565b34600f54836112a791906131d7565b11156112eb5760405162461bcd60e51b8152602060048201526013602482015272416d6f756e742073656e7420746f6f206c6f7760681b6044820152606401610962565b611316604051806040016040528060098152602001685f6e62546f6b656e7360b81b81525083611efe565b60005b82811015610a985761132f600d80546001019055565b600061133a600d5490565b9050611367604051806040016040528060098152602001681b995dd25d195b525960ba1b81525082611efe565b611371338261192d565b61138581610bdc60128054610b2090613250565b50806113908161328b565b915050611319565b7f9f2df0fed2c77648de5860a4cc508cd0818c85b8b8a1ab4ceeef8d981c8956a66113c38133610c3c565b60006113ce60085490565b90506011548311156113f25760405162461bcd60e51b815260040161096290613164565b601054611401906127106131f6565b61140b84836131ab565b11156114535760405162461bcd60e51b81526020600482015260176024820152762737ba1032b737bab3b4102a37b5b2b739903632b33a1760491b6044820152606401610962565b61147e604051806040016040528060098152602001685f6e62546f6b656e7360b81b81525084611efe565b60005b8381101561151257611497600d80546001019055565b60006114a2600d5490565b90506114cf604051806040016040528060098152602001681b995dd25d195b525960ba1b81525082611efe565b6114d9868261192d565b6114ed81610bdc60128054610b2090613250565b60016010546114fc91906131f6565b601055508061150a8161328b565b915050611481565b5050505050565b6001600160a01b0382163314156115725760405162461bcd60e51b815260206004820152601960248201527f4552433732313a20617070726f766520746f2063616c6c6572000000000000006044820152606401610962565b3360008181526005602090815260408083206001600160a01b0387168085529252909120805460ff1916841515179055906001600160a01b03167f17307eab39ab6107e8899845ad3d59bd9653f200f220920489ca2b5937696c31836040516115df911515815260200190565b60405180910390a35050565b60006115f78133610c3c565b6010548311156116555760405162461bcd60e51b815260206004820152602360248201527f5468617420776f756c642065786365656420746865206d61782072657365727660448201526232b21760e91b6064820152608401610962565b600061166060085490565b905060005b84811015611692576116808461167b83856131ab565b61192d565b8061168a8161328b565b915050611665565b50836010546116a191906131f6565b60105550505050565b6116b43383611a05565b6116d05760405162461bcd60e51b815260040161096290613113565b6116dc84848484611f43565b50505050565b60006116ee8133610c3c565b8151610a98906013906020850190612b77565b606061086082611f76565b6000828152600c60205260409020600101546117288133610c3c565b610a988383611d80565b60145460009060ff166117825760405162461bcd60e51b815260206004820152601860248201527714d85b19481a185cc81b9bdd081e595d081cdd185c9d195960421b6044820152606401610962565b5060105490565b60606013805461087790613250565b600e54156117e85760405162461bcd60e51b815260206004820152601d60248201527f5374617274696e6720696e64657820697320616c7265616479207365740000006044820152606401610962565b60004442604051602001611806929190918252602082015260400190565b60408051601f198184030181529190528051602090910120905061182b60ff826132a6565b6118369060016131ab565b905080431015611844575060015b600061185082436131f6565b905061185f61271082406132a6565b600e819055610d7d57600e546118769060016131ab565b600e555050565b60006001600160e01b03198216637965db0b60e01b14806108605750610860826120d9565b6000908152600260205260409020546001600160a01b0316151590565b600081815260046020526040902080546001600160a01b0319166001600160a01b03841690811790915581906118f482611003565b6001600160a01b03167f8c5be1e5ebec7d5bd14f71427d1e84f3dd0314c0f7b2291e5b200ac8c7c3b92560405160405180910390a45050565b610d7d8282604051806020016040528060008152506120fe565b6060848484846040516020016119609493929190612f4b565b60405160208183030381529060405290505b949350505050565b611983826118a2565b6119e65760405162461bcd60e51b815260206004820152602e60248201527f45524337323155524953746f726167653a2055524920736574206f66206e6f6e60448201526d32bc34b9ba32b73a103a37b5b2b760911b6064820152608401610962565b6000828152600a602090815260409091208251610a9892840190612b77565b6000611a10826118a2565b611a715760405162461bcd60e51b815260206004820152602c60248201527f4552433732313a206f70657261746f7220717565727920666f72206e6f6e657860448201526b34b9ba32b73a103a37b5b2b760a11b6064820152608401610962565b6000611a7c83611003565b9050806001600160a01b0316846001600160a01b03161480611ab75750836001600160a01b0316611aac846108fa565b6001600160a01b0316145b8061197257506001600160a01b0380821660009081526005602090815260408083209388168352929052205460ff16611972565b826001600160a01b0316611afe82611003565b6001600160a01b031614611b665760405162461bcd60e51b815260206004820152602960248201527f4552433732313a207472616e73666572206f6620746f6b656e2074686174206960448201526839903737ba1037bbb760b91b6064820152608401610962565b6001600160a01b038216611bc85760405162461bcd60e51b8152602060048201526024808201527f4552433732313a207472616e7366657220746f20746865207a65726f206164646044820152637265737360e01b6064820152608401610962565b611bd3838383612131565b611bde6000826118bf565b6001600160a01b0383166000908152600360205260408120805460019290611c079084906131f6565b90915550506001600160a01b0382166000908152600360205260408120805460019290611c359084906131ab565b909155505060008181526002602052604080822080546001600160a01b0319166001600160a01b0386811691821790925591518493918716917fddf252ad1be2c89b69c2b068fc378daa952ba7f163c4a11628f55a4df523b3ef91a4505050565b611ca08282611181565b610d7d57611cb8816001600160a01b03166014612182565b611cc3836020612182565b604051602001611cd4929190612f96565b60408051601f198184030181529082905262461bcd60e51b82526109629160040161308c565b611d048282611181565b610d7d576000828152600c602090815260408083206001600160a01b03851684529091529020805460ff19166001179055611d3c3390565b6001600160a01b0316816001600160a01b0316837f2f8788117e7eff1d82e926ec794901d17c78024a50270940304540a733656f0d60405160405180910390a45050565b611d8a8282611181565b15610d7d576000828152600c602090815260408083206001600160a01b0385168085529252808320805460ff1916905551339285917ff6391f5c32d9c69d2a47ea670b442974b53935d1edc7fd64eb21e047a839171b9190a45050565b600b5460ff16611e305760405162461bcd60e51b815260206004820152601460248201527314185d5cd8589b194e881b9bdd081c185d5cd95960621b6044820152606401610962565b600b805460ff191690557f5db9ee0a495bf2e6ff9c91a7834c1ba4fdd244a5e8aa4e537bd38aeae4b073aa335b6040516001600160a01b03909116815260200160405180910390a1565b610db48161236b565b600b5460ff1615611ec95760405162461bcd60e51b815260206004820152601060248201526f14185d5cd8589b194e881c185d5cd95960821b6044820152606401610962565b600b805460ff191660011790557f62e78cea01bee320cd4e420270b5ea74000d11b0c9f74754ebdbfc544b05a258611e5d3390565b610d7d8282604051602401611f1492919061309f565b60408051601f198184030181529190526020810180516001600160e01b03166309710a9d60e41b1790526123ab565b611f4e848484611aeb565b611f5a848484846123cc565b6116dc5760405162461bcd60e51b8152600401610962906130c1565b6060611f81826118a2565b611fe75760405162461bcd60e51b815260206004820152603160248201527f45524337323155524953746f726167653a2055524920717565727920666f72206044820152703737b732bc34b9ba32b73a103a37b5b2b760791b6064820152608401610962565b6000828152600a60205260408120805461200090613250565b80601f016020809104026020016040519081016040528092919081815260200182805461202c90613250565b80156120795780601f1061204e57610100808354040283529160200191612079565b820191906000526020600020905b81548152906001019060200180831161205c57829003601f168201915b50505050509050600061208a6124d6565b905080516000141561209e57509050610863565b8151156120d05780826040516020016120b8929190612f1c565b60405160208183030381529060405292505050610863565b611972846124e5565b60006001600160e01b0319821663780e9d6360e01b14806108605750610860826125af565b61210883836125ff565b61211560008484846123cc565b610a985760405162461bcd60e51b8152600401610962906130c1565b600b5460ff16156121775760405162461bcd60e51b815260206004820152601060248201526f14185d5cd8589b194e881c185d5cd95960821b6044820152606401610962565b610a9883838361273e565b606060006121918360026131d7565b61219c9060026131ab565b67ffffffffffffffff8111156121c257634e487b7160e01b600052604160045260246000fd5b6040519080825280601f01601f1916602001820160405280156121ec576020820181803683370190505b509050600360fc1b8160008151811061221557634e487b7160e01b600052603260045260246000fd5b60200101906001600160f81b031916908160001a905350600f60fb1b8160018151811061225257634e487b7160e01b600052603260045260246000fd5b60200101906001600160f81b031916908160001a90535060006122768460026131d7565b6122819060016131ab565b90505b6001811115612315576f181899199a1a9b1b9c1cb0b131b232b360811b85600f16601081106122c357634e487b7160e01b600052603260045260246000fd5b1a60f81b8282815181106122e757634e487b7160e01b600052603260045260246000fd5b60200101906001600160f81b031916908160001a90535060049490941c9361230e81613239565b9050612284565b5083156123645760405162461bcd60e51b815260206004820181905260248201527f537472696e67733a20686578206c656e67746820696e73756666696369656e746044820152606401610962565b9392505050565b612374816127fb565b6000818152600a60205260409020805461238d90613250565b159050610db4576000818152600a60205260408120610db491612bfb565b80516a636f6e736f6c652e6c6f67602083016000808483855afa5050505050565b60006001600160a01b0384163b156124ce57604051630a85bd0160e11b81526001600160a01b0385169063150b7a029061241090339089908890889060040161300b565b602060405180830381600087803b15801561242a57600080fd5b505af192505050801561245a575060408051601f3d908101601f1916820190925261245791810190612e8e565b60015b6124b4573d808015612488576040519150601f19603f3d011682016040523d82523d6000602084013e61248d565b606091505b5080516124ac5760405162461bcd60e51b8152600401610962906130c1565b805181602001fd5b6001600160e01b031916630a85bd0160e11b149050611972565b506001611972565b60606012805461087790613250565b60606124f0826118a2565b6125545760405162461bcd60e51b815260206004820152602f60248201527f4552433732314d657461646174613a2055524920717565727920666f72206e6f60448201526e3732bc34b9ba32b73a103a37b5b2b760891b6064820152608401610962565b600061255e6124d6565b9050600081511161257e5760405180602001604052806000815250612364565b80612588846128a2565b604051602001612599929190612f1c565b6040516020818303038152906040529392505050565b60006001600160e01b031982166380ac58cd60e01b14806125e057506001600160e01b03198216635b5e139f60e01b145b8061086057506301ffc9a760e01b6001600160e01b0319831614610860565b6001600160a01b0382166126555760405162461bcd60e51b815260206004820181905260248201527f4552433732313a206d696e7420746f20746865207a65726f20616464726573736044820152606401610962565b61265e816118a2565b156126ab5760405162461bcd60e51b815260206004820152601c60248201527f4552433732313a20746f6b656e20616c7265616479206d696e746564000000006044820152606401610962565b6126b760008383612131565b6001600160a01b03821660009081526003602052604081208054600192906126e09084906131ab565b909155505060008181526002602052604080822080546001600160a01b0319166001600160a01b03861690811790915590518392907fddf252ad1be2c89b69c2b068fc378daa952ba7f163c4a11628f55a4df523b3ef908290a45050565b6001600160a01b0383166127995761279481600880546000838152600960205260408120829055600182018355919091527ff3f7a9fe364faab93b216da50a3214154f22a0a2b415b23a84c8169e8b636ee30155565b6127bc565b816001600160a01b0316836001600160a01b0316146127bc576127bc83826129bd565b6001600160a01b0382166127d8576127d381612a5a565b610a98565b826001600160a01b0316826001600160a01b031614610a9857610a988282612b33565b600061280682611003565b905061281481600084612131565b61281f6000836118bf565b6001600160a01b03811660009081526003602052604081208054600192906128489084906131f6565b909155505060008281526002602052604080822080546001600160a01b0319169055518391906001600160a01b038416907fddf252ad1be2c89b69c2b068fc378daa952ba7f163c4a11628f55a4df523b3ef908390a45050565b6060816128c757506040805180820190915260018152600360fc1b6020820152610863565b8160005b81156128f157806128db8161328b565b91506128ea9050600a836131c3565b91506128cb565b60008167ffffffffffffffff81111561291a57634e487b7160e01b600052604160045260246000fd5b6040519080825280601f01601f191660200182016040528015612944576020820181803683370190505b5090505b8415611972576129596001836131f6565b9150612966600a866132a6565b6129719060306131ab565b60f81b81838151811061299457634e487b7160e01b600052603260045260246000fd5b60200101906001600160f81b031916908160001a9053506129b6600a866131c3565b9450612948565b600060016129ca8461107a565b6129d491906131f6565b600083815260076020526040902054909150808214612a27576001600160a01b03841660009081526006602090815260408083208584528252808320548484528184208190558352600790915290208190555b5060009182526007602090815260408084208490556001600160a01b039094168352600681528383209183525290812055565b600854600090612a6c906001906131f6565b60008381526009602052604081205460088054939450909284908110612aa257634e487b7160e01b600052603260045260246000fd5b906000526020600020015490508060088381548110612ad157634e487b7160e01b600052603260045260246000fd5b6000918252602080832090910192909255828152600990915260408082208490558582528120556008805480612b1757634e487b7160e01b600052603160045260246000fd5b6001900381819060005260206000200160009055905550505050565b6000612b3e8361107a565b6001600160a01b039093166000908152600660209081526040808320868452825280832085905593825260079052919091209190915550565b828054612b8390613250565b90600052602060002090601f016020900481019282612ba55760008555612beb565b82601f10612bbe57805160ff1916838001178555612beb565b82800160010185558215612beb579182015b82811115612beb578251825591602001919060010190612bd0565b50612bf7929150612c33565b5090565b508054612c0790613250565b6000825580601f10612c195750610db4565b601f016020900490600052602060002090810190610db491905b5b80821115612bf75760008155600101612c34565b600067ffffffffffffffff80841115612c6357612c636132e6565b604051601f8501601f19908116603f01168101908282118183101715612c8b57612c8b6132e6565b81604052809350858152868686011115612ca457600080fd5b858560208301376000602087830101525050509392505050565b80356001600160a01b038116811461086357600080fd5b600060208284031215612ce6578081fd5b61236482612cbe565b60008060408385031215612d01578081fd5b612d0a83612cbe565b9150612d1860208401612cbe565b90509250929050565b600080600060608486031215612d35578081fd5b612d3e84612cbe565b9250612d4c60208501612cbe565b9150604084013590509250925092565b60008060008060808587031215612d71578081fd5b612d7a85612cbe565b9350612d8860208601612cbe565b925060408501359150606085013567ffffffffffffffff811115612daa578182fd5b8501601f81018713612dba578182fd5b612dc987823560208401612c48565b91505092959194509250565b60008060408385031215612de7578182fd5b612df083612cbe565b915060208301358015158114612e04578182fd5b809150509250929050565b60008060408385031215612e21578182fd5b612e2a83612cbe565b946020939093013593505050565b600060208284031215612e49578081fd5b5035919050565b60008060408385031215612e62578182fd5b82359150612d1860208401612cbe565b600060208284031215612e83578081fd5b8135612364816132fc565b600060208284031215612e9f578081fd5b8151612364816132fc565b600060208284031215612ebb578081fd5b813567ffffffffffffffff811115612ed1578182fd5b8201601f81018413612ee1578182fd5b61197284823560208401612c48565b60008151808452612f0881602086016020860161320d565b601f01601f19169290920160200192915050565b60008351612f2e81846020880161320d565b835190830190612f4281836020880161320d565b01949350505050565b60008551612f5d818460208a0161320d565b855190830190612f71818360208a0161320d565b018481528351612f8881602080850190880161320d565b016020019695505050505050565b60007f416363657373436f6e74726f6c3a206163636f756e742000000000000000000082528351612fce81601785016020880161320d565b7001034b99036b4b9b9b4b733903937b6329607d1b6017918401918201528351612fff81602884016020880161320d565b01602801949350505050565b6001600160a01b038581168252841660208201526040810183905260806060820181905260009061303e90830184612ef0565b9695505050505050565b6020808252825182820181905260009190848201906040850190845b8181101561308057835183529284019291840191600101613064565b50909695505050505050565b6000602082526123646020830184612ef0565b6000604082526130b26040830185612ef0565b90508260208301529392505050565b60208082526032908201527f4552433732313a207472616e7366657220746f206e6f6e20455243373231526560408201527131b2b4bb32b91034b6b83632b6b2b73a32b960711b606082015260800190565b60208082526031908201527f4552433732313a207472616e736665722063616c6c6572206973206e6f74206f6040820152701ddb995c881b9bdc88185c1c1c9bdd9959607a1b606082015260800190565b60208082526027908201527f596f752063616e6e6f74206d696e742074686174206d616e79204e46547320616040820152663a1037b731b29760c91b606082015260800190565b600082198211156131be576131be6132ba565b500190565b6000826131d2576131d26132d0565b500490565b60008160001904831182151516156131f1576131f16132ba565b500290565b600082821015613208576132086132ba565b500390565b60005b83811015613228578181015183820152602001613210565b838111156116dc5750506000910152565b600081613248576132486132ba565b506000190190565b600181811c9082168061326457607f821691505b6020821081141561328557634e487b7160e01b600052602260045260246000fd5b50919050565b600060001982141561329f5761329f6132ba565b5060010190565b6000826132b5576132b56132d0565b500690565b634e487b7160e01b600052601160045260246000fd5b634e487b7160e01b600052601260045260246000fd5b634e487b7160e01b600052604160045260246000fd5b6001600160e01b031981168114610db457600080fdfea2646970667358221220ab4df3eb3944d351c75d27b5d4f93ade3da38ae089bfac2df10509febc191c2264736f6c63430008030033",
  "devdoc": {
    "kind": "dev",
    "methods": {
      "approve(address,uint256)": {
        "details": "See {IERC721-approve}."
      },
      "balanceOf(address)": {
        "details": "See {IERC721-balanceOf}."
      },
      "burn(uint256)": {
        "details": "Burns `tokenId`. See {ERC721-_burn}. Requirements: - The caller must own `tokenId` or be an approved operator."
      },
      "getApproved(uint256)": {
        "details": "See {IERC721-getApproved}."
      },
      "getRoleAdmin(bytes32)": {
        "details": "Returns the admin role that controls `role`. See {grantRole} and {revokeRole}. To change a role's admin, use {_setRoleAdmin}."
      },
      "grantRole(bytes32,address)": {
        "details": "Grants `role` to `account`. If `account` had not been already granted `role`, emits a {RoleGranted} event. Requirements: - the caller must have ``role``'s admin role."
      },
      "hasRole(bytes32,address)": {
        "details": "Returns `true` if `account` has been granted `role`."
      },
      "isApprovedForAll(address,address)": {
        "details": "See {IERC721-isApprovedForAll}."
      },
      "name()": {
        "details": "See {IERC721Metadata-name}."
      },
      "ownerOf(uint256)": {
        "details": "See {IERC721-ownerOf}."
      },
      "paused()": {
        "details": "Returns true if the contract is paused, and false otherwise."
      },
      "renounceRole(bytes32,address)": {
        "details": "Revokes `role` from the calling account. Roles are often managed via {grantRole} and {revokeRole}: this function's purpose is to provide a mechanism for accounts to lose their privileges if they are compromised (such as when a trusted device is misplaced). If the calling account had been granted `role`, emits a {RoleRevoked} event. Requirements: - the caller must be `account`."
      },
      "revokeRole(bytes32,address)": {
        "details": "Revokes `role` from `account`. If `account` had been granted `role`, emits a {RoleRevoked} event. Requirements: - the caller must have ``role``'s admin role."
      },
      "safeTransferFrom(address,address,uint256)": {
        "details": "See {IERC721-safeTransferFrom}."
      },
      "safeTransferFrom(address,address,uint256,bytes)": {
        "details": "See {IERC721-safeTransferFrom}."
      },
      "setApprovalForAll(address,bool)": {
        "details": "See {IERC721-setApprovalForAll}."
      },
      "symbol()": {
        "details": "See {IERC721Metadata-symbol}."
      },
      "tokenByIndex(uint256)": {
        "details": "See {IERC721Enumerable-tokenByIndex}."
      },
      "tokenOfOwnerByIndex(address,uint256)": {
        "details": "See {IERC721Enumerable-tokenOfOwnerByIndex}."
      },
      "totalSupply()": {
        "details": "See {IERC721Enumerable-totalSupply}."
      },
      "transferFrom(address,address,uint256)": {
        "details": "See {IERC721-transferFrom}."
      }
    },
    "version": 1
  },
  "userdoc": {
    "kind": "user",
    "methods": {},
    "version": 1
  },
  "storageLayout": {
    "storage": [
      {
        "astId": 2141,
        "contract": "contracts/NFT.sol:NFT",
        "label": "_name",
        "offset": 0,
        "slot": "0",
        "type": "t_string_storage"
      },
      {
        "astId": 2143,
        "contract": "contracts/NFT.sol:NFT",
        "label": "_symbol",
        "offset": 0,
        "slot": "1",
        "type": "t_string_storage"
      },
      {
        "astId": 2147,
        "contract": "contracts/NFT.sol:NFT",
        "label": "_owners",
        "offset": 0,
        "slot": "2",
        "type": "t_mapping(t_uint256,t_address)"
      },
      {
        "astId": 2151,
        "contract": "contracts/NFT.sol:NFT",
        "label": "_balances",
        "offset": 0,
        "slot": "3",
        "type": "t_mapping(t_address,t_uint256)"
      },
      {
        "astId": 2155,
        "contract": "contracts/NFT.sol:NFT",
        "label": "_tokenApprovals",
        "offset": 0,
        "slot": "4",
        "type": "t_mapping(t_uint256,t_address)"
      },
      {
        "astId": 2161,
        "contract": "contracts/NFT.sol:NFT",
        "label": "_operatorApprovals",
        "offset": 0,
        "slot": "5",
        "type": "t_mapping(t_address,t_mapping(t_address,t_bool))"
      },
      {
        "astId": 3110,
        "contract": "contracts/NFT.sol:NFT",
        "label": "_ownedTokens",
        "offset": 0,
        "slot": "6",
        "type": "t_mapping(t_address,t_mapping(t_uint256,t_uint256))"
      },
      {
        "astId": 3114,
        "contract": "contracts/NFT.sol:NFT",
        "label": "_ownedTokensIndex",
        "offset": 0,
        "slot": "7",
        "type": "t_mapping(t_uint256,t_uint256)"
      },
      {
        "astId": 3117,
        "contract": "contracts/NFT.sol:NFT",
        "label": "_allTokens",
        "offset": 0,
        "slot": "8",
        "type": "t_array(t_uint256)dyn_storage"
      },
      {
        "astId": 3121,
        "contract": "contracts/NFT.sol:NFT",
        "label": "_allTokensIndex",
        "offset": 0,
        "slot": "9",
        "type": "t_mapping(t_uint256,t_uint256)"
      },
      {
        "astId": 3446,
        "contract": "contracts/NFT.sol:NFT",
        "label": "_tokenURIs",
        "offset": 0,
        "slot": "10",
        "type": "t_mapping(t_uint256,t_string_storage)"
      },
      {
        "astId": 501,
        "contract": "contracts/NFT.sol:NFT",
        "label": "_paused",
        "offset": 0,
        "slot": "11",
        "type": "t_bool"
      },
      {
        "astId": 24,
        "contract": "contracts/NFT.sol:NFT",
        "label": "_roles",
        "offset": 0,
        "slot": "12",
        "type": "t_mapping(t_bytes32,t_struct(RoleData)19_storage)"
      },
      {
        "astId": 5277,
        "contract": "contracts/NFT.sol:NFT",
        "label": "_tokenIds",
        "offset": 0,
        "slot": "13",
        "type": "t_struct(Counter)3944_storage"
      },
      {
        "astId": 5279,
        "contract": "contracts/NFT.sol:NFT",
        "label": "startingIndex",
        "offset": 0,
        "slot": "14",
        "type": "t_uint256"
      },
      {
        "astId": 5285,
        "contract": "contracts/NFT.sol:NFT",
        "label": "price",
        "offset": 0,
        "slot": "15",
        "type": "t_uint256"
      },
      {
        "astId": 5288,
        "contract": "contracts/NFT.sol:NFT",
        "label": "_reserved",
        "offset": 0,
        "slot": "16",
        "type": "t_uint256"
      },
      {
        "astId": 5291,
        "contract": "contracts/NFT.sol:NFT",
        "label": "_singleMintLimit",
        "offset": 0,
        "slot": "17",
        "type": "t_uint256"
      },
      {
        "astId": 5293,
        "contract": "contracts/NFT.sol:NFT",
        "label": "baseURI",
        "offset": 0,
        "slot": "18",
        "type": "t_string_storage"
      },
      {
        "astId": 5295,
        "contract": "contracts/NFT.sol:NFT",
        "label": "storefrontMetaURI",
        "offset": 0,
        "slot": "19",
        "type": "t_string_storage"
      },
      {
        "astId": 5297,
        "contract": "contracts/NFT.sol:NFT",
        "label": "_saleStarted",
        "offset": 0,
        "slot": "20",
        "type": "t_bool"
      },
      {
        "astId": 5299,
        "contract": "contracts/NFT.sol:NFT",
        "label": "contractAddress",
        "offset": 1,
        "slot": "20",
        "type": "t_address"
      }
    ],
    "types": {
      "t_address": {
        "encoding": "inplace",
        "label": "address",
        "numberOfBytes": "20"
      },
      "t_array(t_uint256)dyn_storage": {
        "base": "t_uint256",
        "encoding": "dynamic_array",
        "label": "uint256[]",
        "numberOfBytes": "32"
      },
      "t_bool": {
        "encoding": "inplace",
        "label": "bool",
        "numberOfBytes": "1"
      },
      "t_bytes32": {
        "encoding": "inplace",
        "label": "bytes32",
        "numberOfBytes": "32"
      },
      "t_mapping(t_address,t_bool)": {
        "encoding": "mapping",
        "key": "t_address",
        "label": "mapping(address => bool)",
        "numberOfBytes": "32",
        "value": "t_bool"
      },
      "t_mapping(t_address,t_mapping(t_address,t_bool))": {
        "encoding": "mapping",
        "key": "t_address",
        "label": "mapping(address => mapping(address => bool))",
        "numberOfBytes": "32",
        "value": "t_mapping(t_address,t_bool)"
      },
      "t_mapping(t_address,t_mapping(t_uint256,t_uint256))": {
        "encoding": "mapping",
        "key": "t_address",
        "label": "mapping(address => mapping(uint256 => uint256))",
        "numberOfBytes": "32",
        "value": "t_mapping(t_uint256,t_uint256)"
      },
      "t_mapping(t_address,t_uint256)": {
        "encoding": "mapping",
        "key": "t_address",
        "label": "mapping(address => uint256)",
        "numberOfBytes": "32",
        "value": "t_uint256"
      },
      "t_mapping(t_bytes32,t_struct(RoleData)19_storage)": {
        "encoding": "mapping",
        "key": "t_bytes32",
        "label": "mapping(bytes32 => struct AccessControl.RoleData)",
        "numberOfBytes": "32",
        "value": "t_struct(RoleData)19_storage"
      },
      "t_mapping(t_uint256,t_address)": {
        "encoding": "mapping",
        "key": "t_uint256",
        "label": "mapping(uint256 => address)",
        "numberOfBytes": "32",
        "value": "t_address"
      },
      "t_mapping(t_uint256,t_string_storage)": {
        "encoding": "mapping",
        "key": "t_uint256",
        "label": "mapping(uint256 => string)",
        "numberOfBytes": "32",
        "value": "t_string_storage"
      },
      "t_mapping(t_uint256,t_uint256)": {
        "encoding": "mapping",
        "key": "t_uint256",
        "label": "mapping(uint256 => uint256)",
        "numberOfBytes": "32",
        "value": "t_uint256"
      },
      "t_string_storage": {
        "encoding": "bytes",
        "label": "string",
        "numberOfBytes": "32"
      },
      "t_struct(Counter)3944_storage": {
        "encoding": "inplace",
        "label": "struct Counters.Counter",
        "members": [
          {
            "astId": 3943,
            "contract": "contracts/NFT.sol:NFT",
            "label": "_value",
            "offset": 0,
            "slot": "0",
            "type": "t_uint256"
          }
        ],
        "numberOfBytes": "32"
      },
      "t_struct(RoleData)19_storage": {
        "encoding": "inplace",
        "label": "struct AccessControl.RoleData",
        "members": [
          {
            "astId": 16,
            "contract": "contracts/NFT.sol:NFT",
            "label": "members",
            "offset": 0,
            "slot": "0",
            "type": "t_mapping(t_address,t_bool)"
          },
          {
            "astId": 18,
            "contract": "contracts/NFT.sol:NFT",
            "label": "adminRole",
            "offset": 0,
            "slot": "1",
            "type": "t_bytes32"
          }
        ],
        "numberOfBytes": "64"
      },
      "t_uint256": {
        "encoding": "inplace",
        "label": "uint256",
        "numberOfBytes": "32"
      }
    }
  }
}