{
  "address": "0x5FbDB2315678afecb367f032d93F642f64180aa3",
  "abi": [
    {
      "inputs": [
        {
          "internalType": "string",
          "name": "name",
          "type": "string"
        },
        {
          "internalType": "string",
          "name": "symbol",
          "type": "string"
        },
        {
          "internalType": "string",
          "name": "_URI",
          "type": "string"
        },
        {
          "internalType": "string",
          "name": "_storefrontMetaURI",
          "type": "string"
        }
      ],
      "stateMutability": "nonpayable",
      "type": "constructor"
    },
    {
      "anonymous": false,
      "inputs": [
        {
          "indexed": true,
          "internalType": "address",
          "name": "owner",
          "type": "address"
        },
        {
          "indexed": true,
          "internalType": "address",
          "name": "approved",
          "type": "address"
        },
        {
          "indexed": true,
          "internalType": "uint256",
          "name": "tokenId",
          "type": "uint256"
        }
      ],
      "name": "Approval",
      "type": "event"
    },
    {
      "anonymous": false,
      "inputs": [
        {
          "indexed": true,
          "internalType": "address",
          "name": "owner",
          "type": "address"
        },
        {
          "indexed": true,
          "internalType": "address",
          "name": "operator",
          "type": "address"
        },
        {
          "indexed": false,
          "internalType": "bool",
          "name": "approved",
          "type": "bool"
        }
      ],
      "name": "ApprovalForAll",
      "type": "event"
    },
    {
      "anonymous": false,
      "inputs": [
        {
          "indexed": false,
          "internalType": "address",
          "name": "account",
          "type": "address"
        }
      ],
      "name": "Paused",
      "type": "event"
    },
    {
      "anonymous": false,
      "inputs": [
        {
          "indexed": true,
          "internalType": "bytes32",
          "name": "role",
          "type": "bytes32"
        },
        {
          "indexed": true,
          "internalType": "bytes32",
          "name": "previousAdminRole",
          "type": "bytes32"
        },
        {
          "indexed": true,
          "internalType": "bytes32",
          "name": "newAdminRole",
          "type": "bytes32"
        }
      ],
      "name": "RoleAdminChanged",
      "type": "event"
    },
    {
      "anonymous": false,
      "inputs": [
        {
          "indexed": true,
          "internalType": "bytes32",
          "name": "role",
          "type": "bytes32"
        },
        {
          "indexed": true,
          "internalType": "address",
          "name": "account",
          "type": "address"
        },
        {
          "indexed": true,
          "internalType": "address",
          "name": "sender",
          "type": "address"
        }
      ],
      "name": "RoleGranted",
      "type": "event"
    },
    {
      "anonymous": false,
      "inputs": [
        {
          "indexed": true,
          "internalType": "bytes32",
          "name": "role",
          "type": "bytes32"
        },
        {
          "indexed": true,
          "internalType": "address",
          "name": "account",
          "type": "address"
        },
        {
          "indexed": true,
          "internalType": "address",
          "name": "sender",
          "type": "address"
        }
      ],
      "name": "RoleRevoked",
      "type": "event"
    },
    {
      "anonymous": false,
      "inputs": [
        {
          "indexed": true,
          "internalType": "address",
          "name": "from",
          "type": "address"
        },
        {
          "indexed": true,
          "internalType": "address",
          "name": "to",
          "type": "address"
        },
        {
          "indexed": true,
          "internalType": "uint256",
          "name": "tokenId",
          "type": "uint256"
        }
      ],
      "name": "Transfer",
      "type": "event"
    },
    {
      "anonymous": false,
      "inputs": [
        {
          "indexed": false,
          "internalType": "address",
          "name": "account",
          "type": "address"
        }
      ],
      "name": "Unpaused",
      "type": "event"
    },
    {
      "inputs": [],
      "name": "DEFAULT_ADMIN_ROLE",
      "outputs": [
        {
          "internalType": "bytes32",
          "name": "",
          "type": "bytes32"
        }
      ],
      "stateMutability": "view",
      "type": "function"
    },
    {
      "inputs": [],
      "name": "MINTER_ROLE",
      "outputs": [
        {
          "internalType": "bytes32",
          "name": "",
          "type": "bytes32"
        }
      ],
      "stateMutability": "view",
      "type": "function"
    },
    {
      "inputs": [],
      "name": "PAUSER_ROLE",
      "outputs": [
        {
          "internalType": "bytes32",
          "name": "",
          "type": "bytes32"
        }
      ],
      "stateMutability": "view",
      "type": "function"
    },
    {
      "inputs": [
        {
          "internalType": "address",
          "name": "to",
          "type": "address"
        },
        {
          "internalType": "uint256",
          "name": "tokenId",
          "type": "uint256"
        }
      ],
      "name": "approve",
      "outputs": [],
      "stateMutability": "nonpayable",
      "type": "function"
    },
    {
      "inputs": [
        {
          "internalType": "address",
          "name": "owner",
          "type": "address"
        }
      ],
      "name": "balanceOf",
      "outputs": [
        {
          "internalType": "uint256",
          "name": "",
          "type": "uint256"
        }
      ],
      "stateMutability": "view",
      "type": "function"
    },
    {
      "inputs": [
        {
          "internalType": "uint256",
          "name": "tokenId",
          "type": "uint256"
        }
      ],
      "name": "burn",
      "outputs": [],
      "stateMutability": "nonpayable",
      "type": "function"
    },
    {
      "inputs": [
        {
          "internalType": "uint256",
          "name": "_number",
          "type": "uint256"
        },
        {
          "internalType": "address",
          "name": "_receiver",
          "type": "address"
        }
      ],
      "name": "claimReserved",
      "outputs": [],
      "stateMutability": "nonpayable",
      "type": "function"
    },
    {
      "inputs": [],
      "name": "contractURI",
      "outputs": [
        {
          "internalType": "string",
          "name": "",
          "type": "string"
        }
      ],
      "stateMutability": "view",
      "type": "function"
    },
    {
      "inputs": [],
      "name": "flipSaleStarted",
      "outputs": [],
      "stateMutability": "nonpayable",
      "type": "function"
    },
    {
      "inputs": [
        {
          "internalType": "uint256",
          "name": "tokenId",
          "type": "uint256"
        }
      ],
      "name": "getApproved",
      "outputs": [
        {
          "internalType": "address",
          "name": "",
          "type": "address"
        }
      ],
      "stateMutability": "view",
      "type": "function"
    },
    {
      "inputs": [],
      "name": "getPrice",
      "outputs": [
        {
          "internalType": "uint256",
          "name": "",
          "type": "uint256"
        }
      ],
      "stateMutability": "view",
      "type": "function"
    },
    {
      "inputs": [],
      "name": "getReservedLeft",
      "outputs": [
        {
          "internalType": "uint256",
          "name": "",
          "type": "uint256"
        }
      ],
      "stateMutability": "view",
      "type": "function"
    },
    {
      "inputs": [
        {
          "internalType": "bytes32",
          "name": "role",
          "type": "bytes32"
        }
      ],
      "name": "getRoleAdmin",
      "outputs": [
        {
          "internalType": "bytes32",
          "name": "",
          "type": "bytes32"
        }
      ],
      "stateMutability": "view",
      "type": "function"
    },
    {
      "inputs": [
        {
          "internalType": "bytes32",
          "name": "role",
          "type": "bytes32"
        },
        {
          "internalType": "address",
          "name": "account",
          "type": "address"
        }
      ],
      "name": "grantRole",
      "outputs": [],
      "stateMutability": "nonpayable",
      "type": "function"
    },
    {
      "inputs": [
        {
          "internalType": "bytes32",
          "name": "role",
          "type": "bytes32"
        },
        {
          "internalType": "address",
          "name": "account",
          "type": "address"
        }
      ],
      "name": "hasRole",
      "outputs": [
        {
          "internalType": "bool",
          "name": "",
          "type": "bool"
        }
      ],
      "stateMutability": "view",
      "type": "function"
    },
    {
      "inputs": [
        {
          "internalType": "address",
          "name": "owner",
          "type": "address"
        },
        {
          "internalType": "address",
          "name": "operator",
          "type": "address"
        }
      ],
      "name": "isApprovedForAll",
      "outputs": [
        {
          "internalType": "bool",
          "name": "",
          "type": "bool"
        }
      ],
      "stateMutability": "view",
      "type": "function"
    },
    {
      "inputs": [],
      "name": "maxSupply",
      "outputs": [
        {
          "internalType": "uint256",
          "name": "",
          "type": "uint256"
        }
      ],
      "stateMutability": "view",
      "type": "function"
    },
    {
      "inputs": [
        {
          "internalType": "uint256",
          "name": "_nbTokens",
          "type": "uint256"
        }
      ],
      "name": "mint",
      "outputs": [],
      "stateMutability": "payable",
      "type": "function"
    },
    {
      "inputs": [],
      "name": "mintToken",
      "outputs": [
        {
          "internalType": "uint256",
          "name": "",
          "type": "uint256"
        }
      ],
      "stateMutability": "payable",
      "type": "function"
    },
    {
      "inputs": [],
      "name": "name",
      "outputs": [
        {
          "internalType": "string",
          "name": "",
          "type": "string"
        }
      ],
      "stateMutability": "view",
      "type": "function"
    },
    {
      "inputs": [
        {
          "internalType": "uint256",
          "name": "tokenId",
          "type": "uint256"
        }
      ],
      "name": "ownerOf",
      "outputs": [
        {
          "internalType": "address",
          "name": "",
          "type": "address"
        }
      ],
      "stateMutability": "view",
      "type": "function"
    },
    {
      "inputs": [],
      "name": "pause",
      "outputs": [],
      "stateMutability": "nonpayable",
      "type": "function"
    },
    {
      "inputs": [],
      "name": "paused",
      "outputs": [
        {
          "internalType": "bool",
          "name": "",
          "type": "bool"
        }
      ],
      "stateMutability": "view",
      "type": "function"
    },
    {
      "inputs": [],
      "name": "price",
      "outputs": [
        {
          "internalType": "uint256",
          "name": "",
          "type": "uint256"
        }
      ],
      "stateMutability": "view",
      "type": "function"
    },
    {
      "inputs": [
        {
          "internalType": "bytes32",
          "name": "role",
          "type": "bytes32"
        },
        {
          "internalType": "address",
          "name": "account",
          "type": "address"
        }
      ],
      "name": "renounceRole",
      "outputs": [],
      "stateMutability": "nonpayable",
      "type": "function"
    },
    {
      "inputs": [
        {
          "internalType": "bytes32",
          "name": "role",
          "type": "bytes32"
        },
        {
          "internalType": "address",
          "name": "account",
          "type": "address"
        }
      ],
      "name": "revokeRole",
      "outputs": [],
      "stateMutability": "nonpayable",
      "type": "function"
    },
    {
      "inputs": [
        {
          "internalType": "address",
          "name": "to",
          "type": "address"
        },
        {
          "internalType": "uint256",
          "name": "_nbTokens",
          "type": "uint256"
        }
      ],
      "name": "safeMint",
      "outputs": [],
      "stateMutability": "nonpayable",
      "type": "function"
    },
    {
      "inputs": [
        {
          "internalType": "address",
          "name": "from",
          "type": "address"
        },
        {
          "internalType": "address",
          "name": "to",
          "type": "address"
        },
        {
          "internalType": "uint256",
          "name": "tokenId",
          "type": "uint256"
        }
      ],
      "name": "safeTransferFrom",
      "outputs": [],
      "stateMutability": "nonpayable",
      "type": "function"
    },
    {
      "inputs": [
        {
          "internalType": "address",
          "name": "from",
          "type": "address"
        },
        {
          "internalType": "address",
          "name": "to",
          "type": "address"
        },
        {
          "internalType": "uint256",
          "name": "tokenId",
          "type": "uint256"
        },
        {
          "internalType": "bytes",
          "name": "_data",
          "type": "bytes"
        }
      ],
      "name": "safeTransferFrom",
      "outputs": [],
      "stateMutability": "nonpayable",
      "type": "function"
    },
    {
      "inputs": [],
      "name": "saleStarted",
      "outputs": [
        {
          "internalType": "bool",
          "name": "",
          "type": "bool"
        }
      ],
      "stateMutability": "view",
      "type": "function"
    },
    {
      "inputs": [
        {
          "internalType": "address",
          "name": "operator",
          "type": "address"
        },
        {
          "internalType": "bool",
          "name": "approved",
          "type": "bool"
        }
      ],
      "name": "setApprovalForAll",
      "outputs": [],
      "stateMutability": "nonpayable",
      "type": "function"
    },
    {
      "inputs": [
        {
          "internalType": "string",
          "name": "_URI",
          "type": "string"
        }
      ],
      "name": "setBaseURI",
      "outputs": [],
      "stateMutability": "nonpayable",
      "type": "function"
    },
    {
      "inputs": [
        {
          "internalType": "uint256",
          "name": "_newPrice",
          "type": "uint256"
        }
      ],
      "name": "setPrice",
      "outputs": [],
      "stateMutability": "nonpayable",
      "type": "function"
    },
    {
      "inputs": [
        {
          "internalType": "uint256",
          "name": "_newReserved",
          "type": "uint256"
        }
      ],
      "name": "setReserved",
      "outputs": [],
      "stateMutability": "nonpayable",
      "type": "function"
    },
    {
      "inputs": [],
      "name": "setStartingIndex",
      "outputs": [],
      "stateMutability": "nonpayable",
      "type": "function"
    },
    {
      "inputs": [
        {
          "internalType": "string",
          "name": "_URI",
          "type": "string"
        }
      ],
      "name": "setStorefrontMetaURI",
      "outputs": [],
      "stateMutability": "nonpayable",
      "type": "function"
    },
    {
      "inputs": [],
      "name": "startingIndex",
      "outputs": [
        {
          "internalType": "uint256",
          "name": "",
          "type": "uint256"
        }
      ],
      "stateMutability": "view",
      "type": "function"
    },
    {
      "inputs": [
        {
          "internalType": "bytes4",
          "name": "interfaceId",
          "type": "bytes4"
        }
      ],
      "name": "supportsInterface",
      "outputs": [
        {
          "internalType": "bool",
          "name": "",
          "type": "bool"
        }
      ],
      "stateMutability": "view",
      "type": "function"
    },
    {
      "inputs": [],
      "name": "symbol",
      "outputs": [
        {
          "internalType": "string",
          "name": "",
          "type": "string"
        }
      ],
      "stateMutability": "view",
      "type": "function"
    },
    {
      "inputs": [
        {
          "internalType": "uint256",
          "name": "index",
          "type": "uint256"
        }
      ],
      "name": "tokenByIndex",
      "outputs": [
        {
          "internalType": "uint256",
          "name": "",
          "type": "uint256"
        }
      ],
      "stateMutability": "view",
      "type": "function"
    },
    {
      "inputs": [
        {
          "internalType": "address",
          "name": "owner",
          "type": "address"
        },
        {
          "internalType": "uint256",
          "name": "index",
          "type": "uint256"
        }
      ],
      "name": "tokenOfOwnerByIndex",
      "outputs": [
        {
          "internalType": "uint256",
          "name": "",
          "type": "uint256"
        }
      ],
      "stateMutability": "view",
      "type": "function"
    },
    {
      "inputs": [
        {
          "internalType": "uint256",
          "name": "tokenId",
          "type": "uint256"
        }
      ],
      "name": "tokenURI",
      "outputs": [
        {
          "internalType": "string",
          "name": "",
          "type": "string"
        }
      ],
      "stateMutability": "view",
      "type": "function"
    },
    {
      "inputs": [],
      "name": "totalSupply",
      "outputs": [
        {
          "internalType": "uint256",
          "name": "",
          "type": "uint256"
        }
      ],
      "stateMutability": "view",
      "type": "function"
    },
    {
      "inputs": [
        {
          "internalType": "address",
          "name": "from",
          "type": "address"
        },
        {
          "internalType": "address",
          "name": "to",
          "type": "address"
        },
        {
          "internalType": "uint256",
          "name": "tokenId",
          "type": "uint256"
        }
      ],
      "name": "transferFrom",
      "outputs": [],
      "stateMutability": "nonpayable",
      "type": "function"
    },
    {
      "inputs": [],
      "name": "unpause",
      "outputs": [],
      "stateMutability": "nonpayable",
      "type": "function"
    },
    {
      "inputs": [
        {
          "internalType": "address",
          "name": "_owner",
          "type": "address"
        }
      ],
      "name": "walletOfOwner",
      "outputs": [
        {
          "internalType": "uint256[]",
          "name": "",
          "type": "uint256[]"
        }
      ],
      "stateMutability": "view",
      "type": "function"
    },
    {
      "inputs": [
        {
          "internalType": "address",
          "name": "_receiver",
          "type": "address"
        }
      ],
      "name": "withdraw",
      "outputs": [],
      "stateMutability": "nonpayable",
      "type": "function"
    }
  ],
  "transactionHash": "0x1d651f78739cac9c88a19d10804d0c1059a1a276a92ed3715fd6614eb1765047",
  "args": [
    "NFT Token",
    "NFT",
    "ipfs://nft/tokenURI",
    "ipfs://nft/storeMetaData"
  ],
  "solcInputHash": "c6987a0f1a6376a4bd78f945ffbd7fe0",
  "bytecode": "0x608060405267011c37937e080000600f5560c860105560146011553480156200002757600080fd5b5060405162003492380380620034928339810160408190526200004a916200033a565b83518490849062000063906000906020850190620001e1565b50805162000079906001906020840190620001e1565b5050600b805460ff19908116909155601480549091169055508151620000a7906012906020850190620001e1565b508051620000bd906013906020840190620001e1565b50620000cb6000336200012d565b620000f77f65d7a28e3265b37a6474929f336521b332c1681b933f6cb9f3376673440d862a336200012d565b620001237f9f2df0fed2c77648de5860a4cc508cd0818c85b8b8a1ab4ceeef8d981c8956a6336200012d565b5050505062000441565b6200013982826200013d565b5050565b6000828152600c602090815260408083206001600160a01b038516845290915290205460ff1662000139576000828152600c602090815260408083206001600160a01b03851684529091529020805460ff191660011790556200019d3390565b6001600160a01b0316816001600160a01b0316837f2f8788117e7eff1d82e926ec794901d17c78024a50270940304540a733656f0d60405160405180910390a45050565b828054620001ef90620003ee565b90600052602060002090601f0160209004810192826200021357600085556200025e565b82601f106200022e57805160ff19168380011785556200025e565b828001600101855582156200025e579182015b828111156200025e57825182559160200191906001019062000241565b506200026c92915062000270565b5090565b5b808211156200026c576000815560010162000271565b600082601f83011262000298578081fd5b81516001600160401b0380821115620002b557620002b56200042b565b604051601f8301601f19908116603f01168101908282118183101715620002e057620002e06200042b565b81604052838152602092508683858801011115620002fc578485fd5b8491505b838210156200031f578582018301518183018401529082019062000300565b838211156200033057848385830101525b9695505050505050565b6000806000806080858703121562000350578384fd5b84516001600160401b038082111562000367578586fd5b620003758883890162000287565b955060208701519150808211156200038b578485fd5b620003998883890162000287565b94506040870151915080821115620003af578384fd5b620003bd8883890162000287565b93506060870151915080821115620003d3578283fd5b50620003e28782880162000287565b91505092959194509250565b600181811c908216806200040357607f821691505b602082108114156200042557634e487b7160e01b600052602260045260246000fd5b50919050565b634e487b7160e01b600052604160045260246000fd5b61304180620004516000396000f3fe6080604052600436106102885760003560e01c80638456cb591161015a578063b88d4fde116100c1578063d5abeb011161007a578063d5abeb0114610783578063daa023aa14610799578063e63ab1e9146107ae578063e8a3d485146107e2578063e985e9c5146107f7578063e98665501461084057610288565b8063b88d4fde146106b9578063c47cee70146106d9578063c87b56dd146106f9578063cb774d4714610719578063d53913931461072f578063d547741f1461076357610288565b8063a035b1fe11610113578063a035b1fe1461061b578063a0712d6814610631578063a144819414610644578063a217fddf14610664578063a22cb46514610679578063b0e1d7f31461069957610288565b80638456cb5914610587578063899d7b381461059c57806391b7f5ed146105b157806391d14854146105d157806395d89b41146105f157806398d5fdca1461060657610288565b806336568abe116101fe57806351cff8d9116101b757806351cff8d9146104d757806355f804b3146104f75780635c474f9e146105175780635c975abb1461052f5780636352211e1461054757806370a082311461056757610288565b806336568abe146104155780633f4ba83a1461043557806342842e0e1461044a57806342966c681461046a578063438b63001461048a5780634f6ccce7146104b757610288565b80632004ffd9116102505780632004ffd91461035d57806323b872dd14610365578063248a9ca3146103855780632d6e71b6146103b55780632f2ff15d146103d55780632f745c59146103f557610288565b806301ffc9a71461028d57806306fdde03146102c2578063081812fc146102e4578063095ea7b31461031c57806318160ddd1461033e575b600080fd5b34801561029957600080fd5b506102ad6102a8366004612bd8565b610855565b60405190151581526020015b60405180910390f35b3480156102ce57600080fd5b506102d7610868565b6040516102b99190612da7565b3480156102f057600080fd5b506103046102ff366004612b9e565b6108fa565b6040516001600160a01b0390911681526020016102b9565b34801561032857600080fd5b5061033c610337366004612b75565b610994565b005b34801561034a57600080fd5b506008545b6040519081526020016102b9565b61034f610aaa565b34801561037157600080fd5b5061033c610380366004612a87565b610b3a565b34801561039157600080fd5b5061034f6103a0366004612b9e565b6000908152600c602052604090206001015490565b3480156103c157600080fd5b5061033c6103d0366004612b9e565b610b6c565b3480156103e157600080fd5b5061033c6103f0366004612bb6565b610b7f565b34801561040157600080fd5b5061034f610410366004612b75565b610ba5565b34801561042157600080fd5b5061033c610430366004612bb6565b610c3b565b34801561044157600080fd5b5061033c610cb9565b34801561045657600080fd5b5061033c610465366004612a87565b610cef565b34801561047657600080fd5b5061033c610485366004612b9e565b610d0a565b34801561049657600080fd5b506104aa6104a5366004612a3b565b610d81565b6040516102b99190612d63565b3480156104c357600080fd5b5061034f6104d2366004612b9e565b610e3f565b3480156104e357600080fd5b5061033c6104f2366004612a3b565b610ee0565b34801561050357600080fd5b5061033c610512366004612c10565b610f1c565b34801561052357600080fd5b5060145460ff166102ad565b34801561053b57600080fd5b50600b5460ff166102ad565b34801561055357600080fd5b50610304610562366004612b9e565b610f3b565b34801561057357600080fd5b5061034f610582366004612a3b565b610fb2565b34801561059357600080fd5b5061033c611039565b3480156105a857600080fd5b5061033c61106c565b3480156105bd57600080fd5b5061033c6105cc366004612b9e565b6110a7565b3480156105dd57600080fd5b506102ad6105ec366004612bb6565b6110b9565b3480156105fd57600080fd5b506102d76110e4565b34801561061257600080fd5b50600f5461034f565b34801561062757600080fd5b5061034f600f5481565b61033c61063f366004612b9e565b6110f3565b34801561065057600080fd5b5061033c61065f366004612b75565b611266565b34801561067057600080fd5b5061034f600081565b34801561068557600080fd5b5061033c610694366004612b3b565b61137d565b3480156106a557600080fd5b5061033c6106b4366004612bb6565b61144f565b3480156106c557600080fd5b5061033c6106d4366004612ac2565b61150e565b3480156106e557600080fd5b5061033c6106f4366004612c10565b611546565b34801561070557600080fd5b506102d7610714366004612b9e565b611565565b34801561072557600080fd5b5061034f600e5481565b34801561073b57600080fd5b5061034f7f9f2df0fed2c77648de5860a4cc508cd0818c85b8b8a1ab4ceeef8d981c8956a681565b34801561076f57600080fd5b5061033c61077e366004612bb6565b611570565b34801561078f57600080fd5b5061034f61271081565b3480156107a557600080fd5b5061034f611596565b3480156107ba57600080fd5b5061034f7f65d7a28e3265b37a6474929f336521b332c1681b933f6cb9f3376673440d862a81565b3480156107ee57600080fd5b506102d76115ed565b34801561080357600080fd5b506102ad610812366004612a55565b6001600160a01b03918216600090815260056020908152604080832093909416825291909152205460ff1690565b34801561084c57600080fd5b5061033c6115fc565b6000610860826116e1565b90505b919050565b60606000805461087790612f49565b80601f01602080910402602001604051908101604052809291908181526020018280546108a390612f49565b80156108f05780601f106108c5576101008083540402835291602001916108f0565b820191906000526020600020905b8154815290600101906020018083116108d357829003601f168201915b5050505050905090565b6000818152600260205260408120546001600160a01b03166109785760405162461bcd60e51b815260206004820152602c60248201527f4552433732313a20617070726f76656420717565727920666f72206e6f6e657860448201526b34b9ba32b73a103a37b5b2b760a11b60648201526084015b60405180910390fd5b506000908152600460205260409020546001600160a01b031690565b600061099f82610f3b565b9050806001600160a01b0316836001600160a01b03161415610a0d5760405162461bcd60e51b815260206004820152602160248201527f4552433732313a20617070726f76616c20746f2063757272656e74206f776e656044820152603960f91b606482015260840161096f565b336001600160a01b0382161480610a295750610a298133610812565b610a9b5760405162461bcd60e51b815260206004820152603860248201527f4552433732313a20617070726f76652063616c6c6572206973206e6f74206f7760448201527f6e6572206e6f7220617070726f76656420666f7220616c6c0000000000000000606482015260840161096f565b610aa58383611706565b505050565b600034600f541115610af45760405162461bcd60e51b8152602060048201526013602482015272416d6f756e742073656e7420746f6f206c6f7760681b604482015260640161096f565b610b02600d80546001019055565b6000610b0d600d5490565b9050610b193382611774565b601454610b359061010090046001600160a01b0316600161137d565b905090565b610b45335b8261178e565b610b615760405162461bcd60e51b815260040161096f90612e0c565b610aa5838383611885565b6000610b7981335b611a30565b50601055565b6000828152600c6020526040902060010154610b9b8133610b74565b610aa58383611a94565b6000610bb083610fb2565b8210610c125760405162461bcd60e51b815260206004820152602b60248201527f455243373231456e756d657261626c653a206f776e657220696e646578206f7560448201526a74206f6620626f756e647360a81b606482015260840161096f565b506001600160a01b03919091166000908152600660209081526040808320938352929052205490565b6001600160a01b0381163314610cab5760405162461bcd60e51b815260206004820152602f60248201527f416363657373436f6e74726f6c3a2063616e206f6e6c792072656e6f756e636560448201526e103937b632b9903337b91039b2b63360891b606482015260840161096f565b610cb58282611b1a565b5050565b7f65d7a28e3265b37a6474929f336521b332c1681b933f6cb9f3376673440d862a610ce48133610b74565b610cec611b81565b50565b610aa58383836040518060200160405280600081525061150e565b610d1333610b3f565b610d785760405162461bcd60e51b815260206004820152603060248201527f4552433732314275726e61626c653a2063616c6c6572206973206e6f74206f7760448201526f1b995c881b9bdc88185c1c1c9bdd995960821b606482015260840161096f565b610cec81611c14565b60606000610d8e83610fb2565b905060008167ffffffffffffffff811115610db957634e487b7160e01b600052604160045260246000fd5b604051908082528060200260200182016040528015610de2578160200160208202803683370190505b50905060005b82811015610e3757610dfa8582610ba5565b828281518110610e1a57634e487b7160e01b600052603260045260246000fd5b602090810291909101015280610e2f81612f84565b915050610de8565b509392505050565b6000610e4a60085490565b8210610ead5760405162461bcd60e51b815260206004820152602c60248201527f455243373231456e756d657261626c653a20676c6f62616c20696e646578206f60448201526b7574206f6620626f756e647360a01b606482015260840161096f565b60088281548110610ece57634e487b7160e01b600052603260045260246000fd5b90600052602060002001549050919050565b6000610eec8133610b74565b60405147906001600160a01b0384169082156108fc029083906000818181858888f19350505050610aa557600080fd5b6000610f288133610b74565b8151610aa59060129060208501906128dd565b6000818152600260205260408120546001600160a01b0316806108605760405162461bcd60e51b815260206004820152602960248201527f4552433732313a206f776e657220717565727920666f72206e6f6e657869737460448201526832b73a103a37b5b2b760b91b606482015260840161096f565b60006001600160a01b03821661101d5760405162461bcd60e51b815260206004820152602a60248201527f4552433732313a2062616c616e636520717565727920666f7220746865207a65604482015269726f206164647265737360b01b606482015260840161096f565b506001600160a01b031660009081526003602052604090205490565b7f65d7a28e3265b37a6474929f336521b332c1681b933f6cb9f3376673440d862a6110648133610b74565b610cec611c1d565b60006110788133610b74565b6014805460ff19811660ff9182161590811790925516801561109a5750600e54155b15610cec57610cec6115fc565b60006110b38133610b74565b50600f55565b6000918252600c602090815260408084206001600160a01b0393909316845291905290205460ff1690565b60606001805461087790612f49565b60145460ff166111405760405162461bcd60e51b815260206004820152601860248201527714d85b19481a185cc81b9bdd081e595d081cdd185c9d195960421b604482015260640161096f565b600061114b60085490565b905060115482111561116f5760405162461bcd60e51b815260040161096f90612e5d565b60105461117e90612710612eef565b6111888383612ea4565b11156111d05760405162461bcd60e51b81526020600482015260176024820152762737ba1032b737bab3b4102a37b5b2b739903632b33a1760491b604482015260640161096f565b34600f54836111df9190612ed0565b11156112235760405162461bcd60e51b8152602060048201526013602482015272416d6f756e742073656e7420746f6f206c6f7760681b604482015260640161096f565b60005b82811015610aa55761123c600d80546001019055565b6000611247600d5490565b90506112533382611774565b508061125e81612f84565b915050611226565b7f9f2df0fed2c77648de5860a4cc508cd0818c85b8b8a1ab4ceeef8d981c8956a66112918133610b74565b600061129c60085490565b90506011548311156112c05760405162461bcd60e51b815260040161096f90612e5d565b6010546112cf90612710612eef565b6112d98483612ea4565b11156113215760405162461bcd60e51b81526020600482015260176024820152762737ba1032b737bab3b4102a37b5b2b739903632b33a1760491b604482015260640161096f565b60005b838110156113765761133a600d80546001019055565b6000611345600d5490565b90506113518682611774565b60016010546113609190612eef565b601055508061136e81612f84565b915050611324565b5050505050565b6001600160a01b0382163314156113d65760405162461bcd60e51b815260206004820152601960248201527f4552433732313a20617070726f766520746f2063616c6c657200000000000000604482015260640161096f565b3360008181526005602090815260408083206001600160a01b0387168085529252909120805460ff1916841515179055906001600160a01b03167f17307eab39ab6107e8899845ad3d59bd9653f200f220920489ca2b5937696c3183604051611443911515815260200190565b60405180910390a35050565b600061145b8133610b74565b6010548311156114b95760405162461bcd60e51b815260206004820152602360248201527f5468617420776f756c642065786365656420746865206d61782072657365727660448201526232b21760e91b606482015260840161096f565b60006114c460085490565b905060005b848110156114f6576114e4846114df8385612ea4565b611774565b806114ee81612f84565b9150506114c9565b50836010546115059190612eef565b60105550505050565b611518338361178e565b6115345760405162461bcd60e51b815260040161096f90612e0c565b61154084848484611c98565b50505050565b60006115528133610b74565b8151610aa59060139060208501906128dd565b606061086082611ccb565b6000828152600c602052604090206001015461158c8133610b74565b610aa58383611b1a565b60145460009060ff166115e65760405162461bcd60e51b815260206004820152601860248201527714d85b19481a185cc81b9bdd081e595d081cdd185c9d195960421b604482015260640161096f565b5060105490565b60606013805461087790612f49565b600e541561164c5760405162461bcd60e51b815260206004820152601d60248201527f5374617274696e6720696e64657820697320616c726561647920736574000000604482015260640161096f565b6000444260405160200161166a929190918252602082015260400190565b60408051601f198184030181529190528051602090910120905061168f60ff82612f9f565b61169a906001612ea4565b9050804310156116a8575060015b60006116b48243612eef565b90506116c36127108240612f9f565b600e819055610cb557600e546116da906001612ea4565b600e555050565b60006001600160e01b03198216637965db0b60e01b1480610860575061086082611e3e565b600081815260046020526040902080546001600160a01b0319166001600160a01b038416908117909155819061173b82610f3b565b6001600160a01b03167f8c5be1e5ebec7d5bd14f71427d1e84f3dd0314c0f7b2291e5b200ac8c7c3b92560405160405180910390a45050565b610cb5828260405180602001604052806000815250611e63565b6000818152600260205260408120546001600160a01b03166118075760405162461bcd60e51b815260206004820152602c60248201527f4552433732313a206f70657261746f7220717565727920666f72206e6f6e657860448201526b34b9ba32b73a103a37b5b2b760a11b606482015260840161096f565b600061181283610f3b565b9050806001600160a01b0316846001600160a01b0316148061184d5750836001600160a01b0316611842846108fa565b6001600160a01b0316145b8061187d57506001600160a01b0380821660009081526005602090815260408083209388168352929052205460ff165b949350505050565b826001600160a01b031661189882610f3b565b6001600160a01b0316146119005760405162461bcd60e51b815260206004820152602960248201527f4552433732313a207472616e73666572206f6620746f6b656e2074686174206960448201526839903737ba1037bbb760b91b606482015260840161096f565b6001600160a01b0382166119625760405162461bcd60e51b8152602060048201526024808201527f4552433732313a207472616e7366657220746f20746865207a65726f206164646044820152637265737360e01b606482015260840161096f565b61196d838383611e96565b611978600082611706565b6001600160a01b03831660009081526003602052604081208054600192906119a1908490612eef565b90915550506001600160a01b03821660009081526003602052604081208054600192906119cf908490612ea4565b909155505060008181526002602052604080822080546001600160a01b0319166001600160a01b0386811691821790925591518493918716917fddf252ad1be2c89b69c2b068fc378daa952ba7f163c4a11628f55a4df523b3ef91a4505050565b611a3a82826110b9565b610cb557611a52816001600160a01b03166014611ee7565b611a5d836020611ee7565b604051602001611a6e929190612cb1565b60408051601f198184030181529082905262461bcd60e51b825261096f91600401612da7565b611a9e82826110b9565b610cb5576000828152600c602090815260408083206001600160a01b03851684529091529020805460ff19166001179055611ad63390565b6001600160a01b0316816001600160a01b0316837f2f8788117e7eff1d82e926ec794901d17c78024a50270940304540a733656f0d60405160405180910390a45050565b611b2482826110b9565b15610cb5576000828152600c602090815260408083206001600160a01b0385168085529252808320805460ff1916905551339285917ff6391f5c32d9c69d2a47ea670b442974b53935d1edc7fd64eb21e047a839171b9190a45050565b600b5460ff16611bca5760405162461bcd60e51b815260206004820152601460248201527314185d5cd8589b194e881b9bdd081c185d5cd95960621b604482015260640161096f565b600b805460ff191690557f5db9ee0a495bf2e6ff9c91a7834c1ba4fdd244a5e8aa4e537bd38aeae4b073aa335b6040516001600160a01b03909116815260200160405180910390a1565b610cec816120d0565b600b5460ff1615611c635760405162461bcd60e51b815260206004820152601060248201526f14185d5cd8589b194e881c185d5cd95960821b604482015260640161096f565b600b805460ff191660011790557f62e78cea01bee320cd4e420270b5ea74000d11b0c9f74754ebdbfc544b05a258611bf73390565b611ca3848484611885565b611caf84848484612110565b6115405760405162461bcd60e51b815260040161096f90612dba565b6000818152600260205260409020546060906001600160a01b0316611d4c5760405162461bcd60e51b815260206004820152603160248201527f45524337323155524953746f726167653a2055524920717565727920666f72206044820152703737b732bc34b9ba32b73a103a37b5b2b760791b606482015260840161096f565b6000828152600a602052604081208054611d6590612f49565b80601f0160208091040260200160405190810160405280929190818152602001828054611d9190612f49565b8015611dde5780601f10611db357610100808354040283529160200191611dde565b820191906000526020600020905b815481529060010190602001808311611dc157829003601f168201915b505050505090506000611def61221d565b9050805160001415611e0357509050610863565b815115611e35578082604051602001611e1d929190612c82565b60405160208183030381529060405292505050610863565b61187d8461222c565b60006001600160e01b0319821663780e9d6360e01b1480610860575061086082612306565b611e6d8383612356565b611e7a6000848484612110565b610aa55760405162461bcd60e51b815260040161096f90612dba565b600b5460ff1615611edc5760405162461bcd60e51b815260206004820152601060248201526f14185d5cd8589b194e881c185d5cd95960821b604482015260640161096f565b610aa58383836124a4565b60606000611ef6836002612ed0565b611f01906002612ea4565b67ffffffffffffffff811115611f2757634e487b7160e01b600052604160045260246000fd5b6040519080825280601f01601f191660200182016040528015611f51576020820181803683370190505b509050600360fc1b81600081518110611f7a57634e487b7160e01b600052603260045260246000fd5b60200101906001600160f81b031916908160001a905350600f60fb1b81600181518110611fb757634e487b7160e01b600052603260045260246000fd5b60200101906001600160f81b031916908160001a9053506000611fdb846002612ed0565b611fe6906001612ea4565b90505b600181111561207a576f181899199a1a9b1b9c1cb0b131b232b360811b85600f166010811061202857634e487b7160e01b600052603260045260246000fd5b1a60f81b82828151811061204c57634e487b7160e01b600052603260045260246000fd5b60200101906001600160f81b031916908160001a90535060049490941c9361207381612f32565b9050611fe9565b5083156120c95760405162461bcd60e51b815260206004820181905260248201527f537472696e67733a20686578206c656e67746820696e73756666696369656e74604482015260640161096f565b9392505050565b6120d981612561565b6000818152600a6020526040902080546120f290612f49565b159050610cec576000818152600a60205260408120610cec91612961565b60006001600160a01b0384163b1561221257604051630a85bd0160e11b81526001600160a01b0385169063150b7a0290612154903390899088908890600401612d26565b602060405180830381600087803b15801561216e57600080fd5b505af192505050801561219e575060408051601f3d908101601f1916820190925261219b91810190612bf4565b60015b6121f8573d8080156121cc576040519150601f19603f3d011682016040523d82523d6000602084013e6121d1565b606091505b5080516121f05760405162461bcd60e51b815260040161096f90612dba565b805181602001fd5b6001600160e01b031916630a85bd0160e11b14905061187d565b506001949350505050565b60606012805461087790612f49565b6000818152600260205260409020546060906001600160a01b03166122ab5760405162461bcd60e51b815260206004820152602f60248201527f4552433732314d657461646174613a2055524920717565727920666f72206e6f60448201526e3732bc34b9ba32b73a103a37b5b2b760891b606482015260840161096f565b60006122b561221d565b905060008151116122d557604051806020016040528060008152506120c9565b806122df84612608565b6040516020016122f0929190612c82565b6040516020818303038152906040529392505050565b60006001600160e01b031982166380ac58cd60e01b148061233757506001600160e01b03198216635b5e139f60e01b145b8061086057506301ffc9a760e01b6001600160e01b0319831614610860565b6001600160a01b0382166123ac5760405162461bcd60e51b815260206004820181905260248201527f4552433732313a206d696e7420746f20746865207a65726f2061646472657373604482015260640161096f565b6000818152600260205260409020546001600160a01b0316156124115760405162461bcd60e51b815260206004820152601c60248201527f4552433732313a20746f6b656e20616c7265616479206d696e74656400000000604482015260640161096f565b61241d60008383611e96565b6001600160a01b0382166000908152600360205260408120805460019290612446908490612ea4565b909155505060008181526002602052604080822080546001600160a01b0319166001600160a01b03861690811790915590518392907fddf252ad1be2c89b69c2b068fc378daa952ba7f163c4a11628f55a4df523b3ef908290a45050565b6001600160a01b0383166124ff576124fa81600880546000838152600960205260408120829055600182018355919091527ff3f7a9fe364faab93b216da50a3214154f22a0a2b415b23a84c8169e8b636ee30155565b612522565b816001600160a01b0316836001600160a01b031614612522576125228382612723565b6001600160a01b03821661253e57612539816127c0565b610aa5565b826001600160a01b0316826001600160a01b031614610aa557610aa58282612899565b600061256c82610f3b565b905061257a81600084611e96565b612585600083611706565b6001600160a01b03811660009081526003602052604081208054600192906125ae908490612eef565b909155505060008281526002602052604080822080546001600160a01b0319169055518391906001600160a01b038416907fddf252ad1be2c89b69c2b068fc378daa952ba7f163c4a11628f55a4df523b3ef908390a45050565b60608161262d57506040805180820190915260018152600360fc1b6020820152610863565b8160005b8115612657578061264181612f84565b91506126509050600a83612ebc565b9150612631565b60008167ffffffffffffffff81111561268057634e487b7160e01b600052604160045260246000fd5b6040519080825280601f01601f1916602001820160405280156126aa576020820181803683370190505b5090505b841561187d576126bf600183612eef565b91506126cc600a86612f9f565b6126d7906030612ea4565b60f81b8183815181106126fa57634e487b7160e01b600052603260045260246000fd5b60200101906001600160f81b031916908160001a90535061271c600a86612ebc565b94506126ae565b6000600161273084610fb2565b61273a9190612eef565b60008381526007602052604090205490915080821461278d576001600160a01b03841660009081526006602090815260408083208584528252808320548484528184208190558352600790915290208190555b5060009182526007602090815260408084208490556001600160a01b039094168352600681528383209183525290812055565b6008546000906127d290600190612eef565b6000838152600960205260408120546008805493945090928490811061280857634e487b7160e01b600052603260045260246000fd5b90600052602060002001549050806008838154811061283757634e487b7160e01b600052603260045260246000fd5b600091825260208083209091019290925582815260099091526040808220849055858252812055600880548061287d57634e487b7160e01b600052603160045260246000fd5b6001900381819060005260206000200160009055905550505050565b60006128a483610fb2565b6001600160a01b039093166000908152600660209081526040808320868452825280832085905593825260079052919091209190915550565b8280546128e990612f49565b90600052602060002090601f01602090048101928261290b5760008555612951565b82601f1061292457805160ff1916838001178555612951565b82800160010185558215612951579182015b82811115612951578251825591602001919060010190612936565b5061295d929150612999565b5090565b50805461296d90612f49565b6000825580601f1061297f5750610cec565b601f016020900490600052602060002090810190610cec91905b5b8082111561295d576000815560010161299a565b600067ffffffffffffffff808411156129c9576129c9612fdf565b604051601f8501601f19908116603f011681019082821181831017156129f1576129f1612fdf565b81604052809350858152868686011115612a0a57600080fd5b858560208301376000602087830101525050509392505050565b80356001600160a01b038116811461086357600080fd5b600060208284031215612a4c578081fd5b6120c982612a24565b60008060408385031215612a67578081fd5b612a7083612a24565b9150612a7e60208401612a24565b90509250929050565b600080600060608486031215612a9b578081fd5b612aa484612a24565b9250612ab260208501612a24565b9150604084013590509250925092565b60008060008060808587031215612ad7578081fd5b612ae085612a24565b9350612aee60208601612a24565b925060408501359150606085013567ffffffffffffffff811115612b10578182fd5b8501601f81018713612b20578182fd5b612b2f878235602084016129ae565b91505092959194509250565b60008060408385031215612b4d578182fd5b612b5683612a24565b915060208301358015158114612b6a578182fd5b809150509250929050565b60008060408385031215612b87578182fd5b612b9083612a24565b946020939093013593505050565b600060208284031215612baf578081fd5b5035919050565b60008060408385031215612bc8578182fd5b82359150612a7e60208401612a24565b600060208284031215612be9578081fd5b81356120c981612ff5565b600060208284031215612c05578081fd5b81516120c981612ff5565b600060208284031215612c21578081fd5b813567ffffffffffffffff811115612c37578182fd5b8201601f81018413612c47578182fd5b61187d848235602084016129ae565b60008151808452612c6e816020860160208601612f06565b601f01601f19169290920160200192915050565b60008351612c94818460208801612f06565b835190830190612ca8818360208801612f06565b01949350505050565b60007f416363657373436f6e74726f6c3a206163636f756e742000000000000000000082528351612ce9816017850160208801612f06565b7001034b99036b4b9b9b4b733903937b6329607d1b6017918401918201528351612d1a816028840160208801612f06565b01602801949350505050565b6001600160a01b0385811682528416602082015260408101839052608060608201819052600090612d5990830184612c56565b9695505050505050565b6020808252825182820181905260009190848201906040850190845b81811015612d9b57835183529284019291840191600101612d7f565b50909695505050505050565b6000602082526120c96020830184612c56565b60208082526032908201527f4552433732313a207472616e7366657220746f206e6f6e20455243373231526560408201527131b2b4bb32b91034b6b83632b6b2b73a32b960711b606082015260800190565b60208082526031908201527f4552433732313a207472616e736665722063616c6c6572206973206e6f74206f6040820152701ddb995c881b9bdc88185c1c1c9bdd9959607a1b606082015260800190565b60208082526027908201527f596f752063616e6e6f74206d696e742074686174206d616e79204e46547320616040820152663a1037b731b29760c91b606082015260800190565b60008219821115612eb757612eb7612fb3565b500190565b600082612ecb57612ecb612fc9565b500490565b6000816000190483118215151615612eea57612eea612fb3565b500290565b600082821015612f0157612f01612fb3565b500390565b60005b83811015612f21578181015183820152602001612f09565b838111156115405750506000910152565b600081612f4157612f41612fb3565b506000190190565b600181811c90821680612f5d57607f821691505b60208210811415612f7e57634e487b7160e01b600052602260045260246000fd5b50919050565b6000600019821415612f9857612f98612fb3565b5060010190565b600082612fae57612fae612fc9565b500690565b634e487b7160e01b600052601160045260246000fd5b634e487b7160e01b600052601260045260246000fd5b634e487b7160e01b600052604160045260246000fd5b6001600160e01b031981168114610cec57600080fdfea2646970667358221220a9857f161933b6a36c548cdca11e4f13859ba9b6fb70859e3fefc593f903a57764736f6c63430008030033",
  "devdoc": {
    "kind": "dev",
    "methods": {
      "approve(address,uint256)": {
        "details": "See {IERC721-approve}."
      },
      "balanceOf(address)": {
        "details": "See {IERC721-balanceOf}."
      },
      "burn(uint256)": {
        "details": "Burns `tokenId`. See {ERC721-_burn}. Requirements: - The caller must own `tokenId` or be an approved operator."
      },
      "getApproved(uint256)": {
        "details": "See {IERC721-getApproved}."
      },
      "getRoleAdmin(bytes32)": {
        "details": "Returns the admin role that controls `role`. See {grantRole} and {revokeRole}. To change a role's admin, use {_setRoleAdmin}."
      },
      "grantRole(bytes32,address)": {
        "details": "Grants `role` to `account`. If `account` had not been already granted `role`, emits a {RoleGranted} event. Requirements: - the caller must have ``role``'s admin role."
      },
      "hasRole(bytes32,address)": {
        "details": "Returns `true` if `account` has been granted `role`."
      },
      "isApprovedForAll(address,address)": {
        "details": "See {IERC721-isApprovedForAll}."
      },
      "name()": {
        "details": "See {IERC721Metadata-name}."
      },
      "ownerOf(uint256)": {
        "details": "See {IERC721-ownerOf}."
      },
      "paused()": {
        "details": "Returns true if the contract is paused, and false otherwise."
      },
      "renounceRole(bytes32,address)": {
        "details": "Revokes `role` from the calling account. Roles are often managed via {grantRole} and {revokeRole}: this function's purpose is to provide a mechanism for accounts to lose their privileges if they are compromised (such as when a trusted device is misplaced). If the calling account had been granted `role`, emits a {RoleRevoked} event. Requirements: - the caller must be `account`."
      },
      "revokeRole(bytes32,address)": {
        "details": "Revokes `role` from `account`. If `account` had been granted `role`, emits a {RoleRevoked} event. Requirements: - the caller must have ``role``'s admin role."
      },
      "safeTransferFrom(address,address,uint256)": {
        "details": "See {IERC721-safeTransferFrom}."
      },
      "safeTransferFrom(address,address,uint256,bytes)": {
        "details": "See {IERC721-safeTransferFrom}."
      },
      "setApprovalForAll(address,bool)": {
        "details": "See {IERC721-setApprovalForAll}."
      },
      "symbol()": {
        "details": "See {IERC721Metadata-symbol}."
      },
      "tokenByIndex(uint256)": {
        "details": "See {IERC721Enumerable-tokenByIndex}."
      },
      "tokenOfOwnerByIndex(address,uint256)": {
        "details": "See {IERC721Enumerable-tokenOfOwnerByIndex}."
      },
      "totalSupply()": {
        "details": "See {IERC721Enumerable-totalSupply}."
      },
      "transferFrom(address,address,uint256)": {
        "details": "See {IERC721-transferFrom}."
      }
    },
    "version": 1
  },
  "userdoc": {
    "kind": "user",
    "methods": {},
    "version": 1
  },
  "storageLayout": {
    "storage": [
      {
        "astId": 2141,
        "contract": "contracts/NFT.sol:NFT",
        "label": "_name",
        "offset": 0,
        "slot": "0",
        "type": "t_string_storage"
      },
      {
        "astId": 2143,
        "contract": "contracts/NFT.sol:NFT",
        "label": "_symbol",
        "offset": 0,
        "slot": "1",
        "type": "t_string_storage"
      },
      {
        "astId": 2147,
        "contract": "contracts/NFT.sol:NFT",
        "label": "_owners",
        "offset": 0,
        "slot": "2",
        "type": "t_mapping(t_uint256,t_address)"
      },
      {
        "astId": 2151,
        "contract": "contracts/NFT.sol:NFT",
        "label": "_balances",
        "offset": 0,
        "slot": "3",
        "type": "t_mapping(t_address,t_uint256)"
      },
      {
        "astId": 2155,
        "contract": "contracts/NFT.sol:NFT",
        "label": "_tokenApprovals",
        "offset": 0,
        "slot": "4",
        "type": "t_mapping(t_uint256,t_address)"
      },
      {
        "astId": 2161,
        "contract": "contracts/NFT.sol:NFT",
        "label": "_operatorApprovals",
        "offset": 0,
        "slot": "5",
        "type": "t_mapping(t_address,t_mapping(t_address,t_bool))"
      },
      {
        "astId": 3110,
        "contract": "contracts/NFT.sol:NFT",
        "label": "_ownedTokens",
        "offset": 0,
        "slot": "6",
        "type": "t_mapping(t_address,t_mapping(t_uint256,t_uint256))"
      },
      {
        "astId": 3114,
        "contract": "contracts/NFT.sol:NFT",
        "label": "_ownedTokensIndex",
        "offset": 0,
        "slot": "7",
        "type": "t_mapping(t_uint256,t_uint256)"
      },
      {
        "astId": 3117,
        "contract": "contracts/NFT.sol:NFT",
        "label": "_allTokens",
        "offset": 0,
        "slot": "8",
        "type": "t_array(t_uint256)dyn_storage"
      },
      {
        "astId": 3121,
        "contract": "contracts/NFT.sol:NFT",
        "label": "_allTokensIndex",
        "offset": 0,
        "slot": "9",
        "type": "t_mapping(t_uint256,t_uint256)"
      },
      {
        "astId": 3446,
        "contract": "contracts/NFT.sol:NFT",
        "label": "_tokenURIs",
        "offset": 0,
        "slot": "10",
        "type": "t_mapping(t_uint256,t_string_storage)"
      },
      {
        "astId": 501,
        "contract": "contracts/NFT.sol:NFT",
        "label": "_paused",
        "offset": 0,
        "slot": "11",
        "type": "t_bool"
      },
      {
        "astId": 24,
        "contract": "contracts/NFT.sol:NFT",
        "label": "_roles",
        "offset": 0,
        "slot": "12",
        "type": "t_mapping(t_bytes32,t_struct(RoleData)19_storage)"
      },
      {
        "astId": 5281,
        "contract": "contracts/NFT.sol:NFT",
        "label": "_tokenIds",
        "offset": 0,
        "slot": "13",
        "type": "t_struct(Counter)3944_storage"
      },
      {
        "astId": 5283,
        "contract": "contracts/NFT.sol:NFT",
        "label": "startingIndex",
        "offset": 0,
        "slot": "14",
        "type": "t_uint256"
      },
      {
        "astId": 5289,
        "contract": "contracts/NFT.sol:NFT",
        "label": "price",
        "offset": 0,
        "slot": "15",
        "type": "t_uint256"
      },
      {
        "astId": 5292,
        "contract": "contracts/NFT.sol:NFT",
        "label": "_reserved",
        "offset": 0,
        "slot": "16",
        "type": "t_uint256"
      },
      {
        "astId": 5295,
        "contract": "contracts/NFT.sol:NFT",
        "label": "_singleMintLimit",
        "offset": 0,
        "slot": "17",
        "type": "t_uint256"
      },
      {
        "astId": 5297,
        "contract": "contracts/NFT.sol:NFT",
        "label": "baseURI",
        "offset": 0,
        "slot": "18",
        "type": "t_string_storage"
      },
      {
        "astId": 5299,
        "contract": "contracts/NFT.sol:NFT",
        "label": "storefrontMetaURI",
        "offset": 0,
        "slot": "19",
        "type": "t_string_storage"
      },
      {
        "astId": 5301,
        "contract": "contracts/NFT.sol:NFT",
        "label": "_saleStarted",
        "offset": 0,
        "slot": "20",
        "type": "t_bool"
      },
      {
        "astId": 5303,
        "contract": "contracts/NFT.sol:NFT",
        "label": "contractAddress",
        "offset": 1,
        "slot": "20",
        "type": "t_address"
      }
    ],
    "types": {
      "t_address": {
        "encoding": "inplace",
        "label": "address",
        "numberOfBytes": "20"
      },
      "t_array(t_uint256)dyn_storage": {
        "base": "t_uint256",
        "encoding": "dynamic_array",
        "label": "uint256[]",
        "numberOfBytes": "32"
      },
      "t_bool": {
        "encoding": "inplace",
        "label": "bool",
        "numberOfBytes": "1"
      },
      "t_bytes32": {
        "encoding": "inplace",
        "label": "bytes32",
        "numberOfBytes": "32"
      },
      "t_mapping(t_address,t_bool)": {
        "encoding": "mapping",
        "key": "t_address",
        "label": "mapping(address => bool)",
        "numberOfBytes": "32",
        "value": "t_bool"
      },
      "t_mapping(t_address,t_mapping(t_address,t_bool))": {
        "encoding": "mapping",
        "key": "t_address",
        "label": "mapping(address => mapping(address => bool))",
        "numberOfBytes": "32",
        "value": "t_mapping(t_address,t_bool)"
      },
      "t_mapping(t_address,t_mapping(t_uint256,t_uint256))": {
        "encoding": "mapping",
        "key": "t_address",
        "label": "mapping(address => mapping(uint256 => uint256))",
        "numberOfBytes": "32",
        "value": "t_mapping(t_uint256,t_uint256)"
      },
      "t_mapping(t_address,t_uint256)": {
        "encoding": "mapping",
        "key": "t_address",
        "label": "mapping(address => uint256)",
        "numberOfBytes": "32",
        "value": "t_uint256"
      },
      "t_mapping(t_bytes32,t_struct(RoleData)19_storage)": {
        "encoding": "mapping",
        "key": "t_bytes32",
        "label": "mapping(bytes32 => struct AccessControl.RoleData)",
        "numberOfBytes": "32",
        "value": "t_struct(RoleData)19_storage"
      },
      "t_mapping(t_uint256,t_address)": {
        "encoding": "mapping",
        "key": "t_uint256",
        "label": "mapping(uint256 => address)",
        "numberOfBytes": "32",
        "value": "t_address"
      },
      "t_mapping(t_uint256,t_string_storage)": {
        "encoding": "mapping",
        "key": "t_uint256",
        "label": "mapping(uint256 => string)",
        "numberOfBytes": "32",
        "value": "t_string_storage"
      },
      "t_mapping(t_uint256,t_uint256)": {
        "encoding": "mapping",
        "key": "t_uint256",
        "label": "mapping(uint256 => uint256)",
        "numberOfBytes": "32",
        "value": "t_uint256"
      },
      "t_string_storage": {
        "encoding": "bytes",
        "label": "string",
        "numberOfBytes": "32"
      },
      "t_struct(Counter)3944_storage": {
        "encoding": "inplace",
        "label": "struct Counters.Counter",
        "members": [
          {
            "astId": 3943,
            "contract": "contracts/NFT.sol:NFT",
            "label": "_value",
            "offset": 0,
            "slot": "0",
            "type": "t_uint256"
          }
        ],
        "numberOfBytes": "32"
      },
      "t_struct(RoleData)19_storage": {
        "encoding": "inplace",
        "label": "struct AccessControl.RoleData",
        "members": [
          {
            "astId": 16,
            "contract": "contracts/NFT.sol:NFT",
            "label": "members",
            "offset": 0,
            "slot": "0",
            "type": "t_mapping(t_address,t_bool)"
          },
          {
            "astId": 18,
            "contract": "contracts/NFT.sol:NFT",
            "label": "adminRole",
            "offset": 0,
            "slot": "1",
            "type": "t_bytes32"
          }
        ],
        "numberOfBytes": "64"
      },
      "t_uint256": {
        "encoding": "inplace",
        "label": "uint256",
        "numberOfBytes": "32"
      }
    }
  }
}