{
  "address": "0x9fE46736679d2D9a65F0992F2272dE9f3c7fa6e0",
  "abi": [
    {
      "inputs": [
        {
          "internalType": "uint256",
          "name": "initialSupply",
          "type": "uint256"
        }
      ],
      "stateMutability": "nonpayable",
      "type": "constructor"
    },
    {
      "anonymous": false,
      "inputs": [
        {
          "indexed": true,
          "internalType": "address",
          "name": "owner",
          "type": "address"
        },
        {
          "indexed": true,
          "internalType": "address",
          "name": "spender",
          "type": "address"
        },
        {
          "indexed": false,
          "internalType": "uint256",
          "name": "value",
          "type": "uint256"
        }
      ],
      "name": "Approval",
      "type": "event"
    },
    {
      "anonymous": false,
      "inputs": [
        {
          "indexed": true,
          "internalType": "address",
          "name": "delegator",
          "type": "address"
        },
        {
          "indexed": true,
          "internalType": "address",
          "name": "fromDelegate",
          "type": "address"
        },
        {
          "indexed": true,
          "internalType": "address",
          "name": "toDelegate",
          "type": "address"
        }
      ],
      "name": "DelegateChanged",
      "type": "event"
    },
    {
      "anonymous": false,
      "inputs": [
        {
          "indexed": true,
          "internalType": "address",
          "name": "delegate",
          "type": "address"
        },
        {
          "indexed": false,
          "internalType": "uint256",
          "name": "previousBalance",
          "type": "uint256"
        },
        {
          "indexed": false,
          "internalType": "uint256",
          "name": "newBalance",
          "type": "uint256"
        }
      ],
      "name": "DelegateVotesChanged",
      "type": "event"
    },
    {
      "anonymous": false,
      "inputs": [
        {
          "indexed": true,
          "internalType": "address",
          "name": "previousOwner",
          "type": "address"
        },
        {
          "indexed": true,
          "internalType": "address",
          "name": "newOwner",
          "type": "address"
        }
      ],
      "name": "OwnershipTransferred",
      "type": "event"
    },
    {
      "anonymous": false,
      "inputs": [
        {
          "indexed": false,
          "internalType": "address",
          "name": "account",
          "type": "address"
        }
      ],
      "name": "Paused",
      "type": "event"
    },
    {
      "anonymous": false,
      "inputs": [
        {
          "indexed": true,
          "internalType": "address",
          "name": "from",
          "type": "address"
        },
        {
          "indexed": true,
          "internalType": "address",
          "name": "to",
          "type": "address"
        },
        {
          "indexed": false,
          "internalType": "uint256",
          "name": "value",
          "type": "uint256"
        }
      ],
      "name": "Transfer",
      "type": "event"
    },
    {
      "anonymous": false,
      "inputs": [
        {
          "indexed": false,
          "internalType": "address",
          "name": "account",
          "type": "address"
        }
      ],
      "name": "Unpaused",
      "type": "event"
    },
    {
      "inputs": [],
      "name": "DOMAIN_SEPARATOR",
      "outputs": [
        {
          "internalType": "bytes32",
          "name": "",
          "type": "bytes32"
        }
      ],
      "stateMutability": "view",
      "type": "function"
    },
    {
      "inputs": [
        {
          "internalType": "address",
          "name": "owner",
          "type": "address"
        },
        {
          "internalType": "address",
          "name": "spender",
          "type": "address"
        }
      ],
      "name": "allowance",
      "outputs": [
        {
          "internalType": "uint256",
          "name": "",
          "type": "uint256"
        }
      ],
      "stateMutability": "view",
      "type": "function"
    },
    {
      "inputs": [
        {
          "internalType": "address",
          "name": "spender",
          "type": "address"
        },
        {
          "internalType": "uint256",
          "name": "amount",
          "type": "uint256"
        }
      ],
      "name": "approve",
      "outputs": [
        {
          "internalType": "bool",
          "name": "",
          "type": "bool"
        }
      ],
      "stateMutability": "nonpayable",
      "type": "function"
    },
    {
      "inputs": [
        {
          "internalType": "address",
          "name": "account",
          "type": "address"
        }
      ],
      "name": "balanceOf",
      "outputs": [
        {
          "internalType": "uint256",
          "name": "",
          "type": "uint256"
        }
      ],
      "stateMutability": "view",
      "type": "function"
    },
    {
      "inputs": [
        {
          "internalType": "address",
          "name": "account",
          "type": "address"
        },
        {
          "internalType": "uint32",
          "name": "pos",
          "type": "uint32"
        }
      ],
      "name": "checkpoints",
      "outputs": [
        {
          "components": [
            {
              "internalType": "uint32",
              "name": "fromBlock",
              "type": "uint32"
            },
            {
              "internalType": "uint224",
              "name": "votes",
              "type": "uint224"
            }
          ],
          "internalType": "struct ERC20Votes.Checkpoint",
          "name": "",
          "type": "tuple"
        }
      ],
      "stateMutability": "view",
      "type": "function"
    },
    {
      "inputs": [],
      "name": "decimals",
      "outputs": [
        {
          "internalType": "uint8",
          "name": "",
          "type": "uint8"
        }
      ],
      "stateMutability": "view",
      "type": "function"
    },
    {
      "inputs": [
        {
          "internalType": "address",
          "name": "spender",
          "type": "address"
        },
        {
          "internalType": "uint256",
          "name": "subtractedValue",
          "type": "uint256"
        }
      ],
      "name": "decreaseAllowance",
      "outputs": [
        {
          "internalType": "bool",
          "name": "",
          "type": "bool"
        }
      ],
      "stateMutability": "nonpayable",
      "type": "function"
    },
    {
      "inputs": [
        {
          "internalType": "address",
          "name": "delegatee",
          "type": "address"
        }
      ],
      "name": "delegate",
      "outputs": [],
      "stateMutability": "nonpayable",
      "type": "function"
    },
    {
      "inputs": [
        {
          "internalType": "address",
          "name": "delegatee",
          "type": "address"
        },
        {
          "internalType": "uint256",
          "name": "nonce",
          "type": "uint256"
        },
        {
          "internalType": "uint256",
          "name": "expiry",
          "type": "uint256"
        },
        {
          "internalType": "uint8",
          "name": "v",
          "type": "uint8"
        },
        {
          "internalType": "bytes32",
          "name": "r",
          "type": "bytes32"
        },
        {
          "internalType": "bytes32",
          "name": "s",
          "type": "bytes32"
        }
      ],
      "name": "delegateBySig",
      "outputs": [],
      "stateMutability": "nonpayable",
      "type": "function"
    },
    {
      "inputs": [
        {
          "internalType": "address",
          "name": "account",
          "type": "address"
        }
      ],
      "name": "delegates",
      "outputs": [
        {
          "internalType": "address",
          "name": "",
          "type": "address"
        }
      ],
      "stateMutability": "view",
      "type": "function"
    },
    {
      "inputs": [
        {
          "internalType": "uint256",
          "name": "blockNumber",
          "type": "uint256"
        }
      ],
      "name": "getPastTotalSupply",
      "outputs": [
        {
          "internalType": "uint256",
          "name": "",
          "type": "uint256"
        }
      ],
      "stateMutability": "view",
      "type": "function"
    },
    {
      "inputs": [
        {
          "internalType": "address",
          "name": "account",
          "type": "address"
        },
        {
          "internalType": "uint256",
          "name": "blockNumber",
          "type": "uint256"
        }
      ],
      "name": "getPastVotes",
      "outputs": [
        {
          "internalType": "uint256",
          "name": "",
          "type": "uint256"
        }
      ],
      "stateMutability": "view",
      "type": "function"
    },
    {
      "inputs": [
        {
          "internalType": "address",
          "name": "account",
          "type": "address"
        }
      ],
      "name": "getVotes",
      "outputs": [
        {
          "internalType": "uint256",
          "name": "",
          "type": "uint256"
        }
      ],
      "stateMutability": "view",
      "type": "function"
    },
    {
      "inputs": [
        {
          "internalType": "address",
          "name": "spender",
          "type": "address"
        },
        {
          "internalType": "uint256",
          "name": "addedValue",
          "type": "uint256"
        }
      ],
      "name": "increaseAllowance",
      "outputs": [
        {
          "internalType": "bool",
          "name": "",
          "type": "bool"
        }
      ],
      "stateMutability": "nonpayable",
      "type": "function"
    },
    {
      "inputs": [],
      "name": "name",
      "outputs": [
        {
          "internalType": "string",
          "name": "",
          "type": "string"
        }
      ],
      "stateMutability": "view",
      "type": "function"
    },
    {
      "inputs": [
        {
          "internalType": "address",
          "name": "owner",
          "type": "address"
        }
      ],
      "name": "nonces",
      "outputs": [
        {
          "internalType": "uint256",
          "name": "",
          "type": "uint256"
        }
      ],
      "stateMutability": "view",
      "type": "function"
    },
    {
      "inputs": [
        {
          "internalType": "address",
          "name": "account",
          "type": "address"
        }
      ],
      "name": "numCheckpoints",
      "outputs": [
        {
          "internalType": "uint32",
          "name": "",
          "type": "uint32"
        }
      ],
      "stateMutability": "view",
      "type": "function"
    },
    {
      "inputs": [],
      "name": "owner",
      "outputs": [
        {
          "internalType": "address",
          "name": "",
          "type": "address"
        }
      ],
      "stateMutability": "view",
      "type": "function"
    },
    {
      "inputs": [],
      "name": "pause",
      "outputs": [],
      "stateMutability": "nonpayable",
      "type": "function"
    },
    {
      "inputs": [],
      "name": "paused",
      "outputs": [
        {
          "internalType": "bool",
          "name": "",
          "type": "bool"
        }
      ],
      "stateMutability": "view",
      "type": "function"
    },
    {
      "inputs": [
        {
          "internalType": "address",
          "name": "owner",
          "type": "address"
        },
        {
          "internalType": "address",
          "name": "spender",
          "type": "address"
        },
        {
          "internalType": "uint256",
          "name": "value",
          "type": "uint256"
        },
        {
          "internalType": "uint256",
          "name": "deadline",
          "type": "uint256"
        },
        {
          "internalType": "uint8",
          "name": "v",
          "type": "uint8"
        },
        {
          "internalType": "bytes32",
          "name": "r",
          "type": "bytes32"
        },
        {
          "internalType": "bytes32",
          "name": "s",
          "type": "bytes32"
        }
      ],
      "name": "permit",
      "outputs": [],
      "stateMutability": "nonpayable",
      "type": "function"
    },
    {
      "inputs": [],
      "name": "renounceOwnership",
      "outputs": [],
      "stateMutability": "nonpayable",
      "type": "function"
    },
    {
      "inputs": [],
      "name": "symbol",
      "outputs": [
        {
          "internalType": "string",
          "name": "",
          "type": "string"
        }
      ],
      "stateMutability": "view",
      "type": "function"
    },
    {
      "inputs": [],
      "name": "totalSupply",
      "outputs": [
        {
          "internalType": "uint256",
          "name": "",
          "type": "uint256"
        }
      ],
      "stateMutability": "view",
      "type": "function"
    },
    {
      "inputs": [
        {
          "internalType": "address",
          "name": "recipient",
          "type": "address"
        },
        {
          "internalType": "uint256",
          "name": "amount",
          "type": "uint256"
        }
      ],
      "name": "transfer",
      "outputs": [
        {
          "internalType": "bool",
          "name": "",
          "type": "bool"
        }
      ],
      "stateMutability": "nonpayable",
      "type": "function"
    },
    {
      "inputs": [
        {
          "internalType": "address",
          "name": "sender",
          "type": "address"
        },
        {
          "internalType": "address",
          "name": "recipient",
          "type": "address"
        },
        {
          "internalType": "uint256",
          "name": "amount",
          "type": "uint256"
        }
      ],
      "name": "transferFrom",
      "outputs": [
        {
          "internalType": "bool",
          "name": "",
          "type": "bool"
        }
      ],
      "stateMutability": "nonpayable",
      "type": "function"
    },
    {
      "inputs": [
        {
          "internalType": "address",
          "name": "newOwner",
          "type": "address"
        }
      ],
      "name": "transferOwnership",
      "outputs": [],
      "stateMutability": "nonpayable",
      "type": "function"
    },
    {
      "inputs": [],
      "name": "unpause",
      "outputs": [],
      "stateMutability": "nonpayable",
      "type": "function"
    }
  ],
  "transactionHash": "0xd80826a8e8e890a1067bdc27d2163d1d737f73952c58c451ffbe9dd5a23b3879",
  "args": [
    100000000
  ],
  "solcInputHash": "c6987a0f1a6376a4bd78f945ffbd7fe0",
  "bytecode": "0x6101406040527f6e71edae12b1b97f4d1f60370fef10105fa2faae0126114a169c64845d6126c9610120523480156200003757600080fd5b5060405162002c6938038062002c698339810160408190526200005a916200097d565b6040518060400160405280600c81526020016b29b0b6b83632903a37b5b2b760a11b81525080604051806040016040528060018152602001603160f81b8152506040518060400160405280600c81526020016b29b0b6b83632903a37b5b2b760a11b8152506040518060400160405280600381526020016253414d60e81b8152508160039080519060200190620000f3929190620008e1565b50805162000109906004906020840190620008e1565b50506005805460ff19169055506200012133620001b4565b815160208084019190912082519183019190912060c082905260e08190524660a0527f8b73c3c69bb8fe3d512ecc4cf759cc79239f7b179b0ffacaa9a75d522b39400f620001718184846200020e565b6080526101005250620001ad93503392506200018e915050601290565b6200019b90600a620009fe565b620001a7908462000ae9565b62000258565b5062000b78565b600580546001600160a01b03838116610100818102610100600160a81b031985161790945560405193909204169182907f8be0079c531659141344cd1fd0a4f28419497f9722a3daafe3b4186f6b6457e090600090a35050565b6040805160208101859052908101839052606081018290524660808201523060a082015260009060c0016040516020818303038152906040528051906020012090505b9392505050565b6200026f82826200027360201b62000cfa1760201c565b5050565b6200028a82826200032a60201b62000d8a1760201c565b6001600160e01b036200029e620004278216565b11156200030b5760405162461bcd60e51b815260206004820152603060248201527f4552433230566f7465733a20746f74616c20737570706c79207269736b73206f60448201526f766572666c6f77696e6720766f74657360801b60648201526084015b60405180910390fd5b62000324600962000e816200042d60201b17836200043b565b50505050565b6001600160a01b038216620003825760405162461bcd60e51b815260206004820152601f60248201527f45524332303a206d696e7420746f20746865207a65726f206164647265737300604482015260640162000302565b620003906000838362000611565b8060026000828254620003a4919062000996565b90915550506001600160a01b03821660009081526020819052604081208054839290620003d390849062000996565b90915550506040518181526001600160a01b038316906000907fddf252ad1be2c89b69c2b068fc378daa952ba7f163c4a11628f55a4df523b3ef9060200160405180910390a36200026f6000838362000676565b60025490565b600062000251828462000996565b8254600090819080156200049957856200045760018362000b0b565b815481106200047657634e487b7160e01b600052603260045260246000fd5b60009182526020909120015464010000000090046001600160e01b03166200049c565b60005b6001600160e01b03169250620004b383858760201c565b91506000811180156200050357504386620004d060018462000b0b565b81548110620004ef57634e487b7160e01b600052603260045260246000fd5b60009182526020909120015463ffffffff16145b1562000583576200051f826200068e60201b62000e8d1760201c565b866200052d60018462000b0b565b815481106200054c57634e487b7160e01b600052603260045260246000fd5b9060005260206000200160000160046101000a8154816001600160e01b0302191690836001600160e01b0316021790555062000608565b856040518060400160405280620005a543620006fd60201b62000efa1760201c565b63ffffffff168152602001620005c6856200068e60201b62000e8d1760201c565b6001600160e01b0390811690915282546001810184556000938452602093849020835194909301519091166401000000000263ffffffff909316929092179101555b50935093915050565b60055460ff1615620006595760405162461bcd60e51b815260206004820152601060248201526f14185d5cd8589b194e881c185d5cd95960821b604482015260640162000302565b620006718383836200067160201b62000f5f1760201c565b505050565b620006718383836200076460201b62000f641760201c565b60006001600160e01b03821115620006f95760405162461bcd60e51b815260206004820152602760248201527f53616665436173743a2076616c756520646f65736e27742066697420696e20326044820152663234206269747360c81b606482015260840162000302565b5090565b600063ffffffff821115620006f95760405162461bcd60e51b815260206004820152602660248201527f53616665436173743a2076616c756520646f65736e27742066697420696e203360448201526532206269747360d01b606482015260840162000302565b6200077c8383836200067160201b62000f5f1760201c565b6001600160a01b038381166000908152600760205260408082205485841683529120546200067192918216911683818314801590620007bb5750600081115b1562000671576001600160a01b0383161562000848576001600160a01b038316600090815260086020908152604082208291620008059190620008d3901b62000f7f17856200043b565b91509150846001600160a01b031660008051602062002c4983398151915283836040516200083d929190918252602082015260400190565b60405180910390a250505b6001600160a01b0382161562000671576001600160a01b0382166000908152600860209081526040822082916200088c91906200042d901b62000e8117856200043b565b91509150836001600160a01b031660008051602062002c498339815191528383604051620008c4929190918252602082015260400190565b60405180910390a25050505050565b600062000251828462000b0b565b828054620008ef9062000b25565b90600052602060002090601f0160209004810192826200091357600085556200095e565b82601f106200092e57805160ff19168380011785556200095e565b828001600101855582156200095e579182015b828111156200095e57825182559160200191906001019062000941565b50620006f99291505b80821115620006f9576000815560010162000967565b6000602082840312156200098f578081fd5b5051919050565b60008219821115620009ac57620009ac62000b62565b500190565b80825b6001808611620009c55750620009f5565b818704821115620009da57620009da62000b62565b80861615620009e857918102915b9490941c938002620009b4565b94509492505050565b60006200025160001960ff85168460008262000a1d5750600162000251565b8162000a2c5750600062000251565b816001811462000a45576002811462000a505762000a84565b600191505062000251565b60ff84111562000a645762000a6462000b62565b6001841b91508482111562000a7d5762000a7d62000b62565b5062000251565b5060208310610133831016604e8410600b841016171562000abc575081810a8381111562000ab65762000ab662000b62565b62000251565b62000acb8484846001620009b1565b80860482111562000ae05762000ae062000b62565b02949350505050565b600081600019048311821515161562000b065762000b0662000b62565b500290565b60008282101562000b205762000b2062000b62565b500390565b600181811c9082168062000b3a57607f821691505b6020821081141562000b5c57634e487b7160e01b600052602260045260246000fd5b50919050565b634e487b7160e01b600052601160045260246000fd5b60805160a05160c05160e051610100516101205161208162000bc86000396000610aba015260006112e6015260006113350152600061131001526000611292015260006112bb01526120816000f3fe608060405234801561001057600080fd5b50600436106101c45760003560e01c8063715018a6116100f9578063a457c2d711610097578063d505accf11610071578063d505accf146103b1578063dd62ed3e146103c4578063f1127ed8146103fd578063f2fde38b1461043a576101c4565b8063a457c2d714610378578063a9059cbb1461038b578063c3cda5201461039e576101c4565b80638da5cb5b116100d35780638da5cb5b146103335780638e539e8c1461034a57806395d89b411461035d5780639ab24eb014610365576101c4565b8063715018a6146103105780637ecebe00146103185780638456cb591461032b576101c4565b80633a46b1a8116101665780635c19a95c116101405780635c19a95c146102a15780635c975abb146102b45780636fcfff45146102bf57806370a08231146102e7576101c4565b80633a46b1a8146102595780633f4ba83a1461026c578063587cde1e14610276576101c4565b806323b872dd116101a257806323b872dd1461021c578063313ce5671461022f5780633644e5151461023e5780633950935114610246576101c4565b806306fdde03146101c9578063095ea7b3146101e757806318160ddd1461020a575b600080fd5b6101d161044d565b6040516101de9190611f29565b60405180910390f35b6101fa6101f5366004611e53565b6104e0565b60405190151581526020016101de565b6002545b6040519081526020016101de565b6101fa61022a366004611daf565b6104f6565b604051601281526020016101de565b61020e6105a5565b6101fa610254366004611e53565b6105b4565b61020e610267366004611e53565b6105f0565b61027461066a565b005b610289610284366004611d63565b6106a4565b6040516001600160a01b0390911681526020016101de565b6102746102af366004611d63565b6106c5565b60055460ff166101fa565b6102d26102cd366004611d63565b6106d2565b60405163ffffffff90911681526020016101de565b61020e6102f5366004611d63565b6001600160a01b031660009081526020819052604090205490565b6102746106fa565b61020e610326366004611d63565b610734565b610274610752565b61028960055461010090046001600160a01b031690565b61020e610358366004611f11565b61078a565b6101d16107e6565b61020e610373366004611d63565b6107f5565b6101fa610386366004611e53565b61088a565b6101fa610399366004611e53565b610923565b6102746103ac366004611e7c565b610930565b6102746103bf366004611dea565b610a66565b61020e6103d2366004611d7d565b6001600160a01b03918216600090815260016020908152604080832093909416825291909152205490565b61041061040b366004611ed3565b610bca565b60408051825163ffffffff1681526020928301516001600160e01b031692810192909252016101de565b610274610448366004611d63565b610c5c565b60606003805461045c90612000565b80601f016020809104026020016040519081016040528092919081815260200182805461048890612000565b80156104d55780601f106104aa576101008083540402835291602001916104d5565b820191906000526020600020905b8154815290600101906020018083116104b857829003601f168201915b505050505090505b90565b60006104ed338484610f8b565b50600192915050565b60006105038484846110af565b6001600160a01b03841660009081526001602090815260408083203384529091529020548281101561058d5760405162461bcd60e51b815260206004820152602860248201527f45524332303a207472616e7366657220616d6f756e74206578636565647320616044820152676c6c6f77616e636560c01b60648201526084015b60405180910390fd5b61059a8533858403610f8b565b506001949350505050565b60006105af61128e565b905090565b3360008181526001602090815260408083206001600160a01b038716845290915281205490916104ed9185906105eb908690611fb1565b610f8b565b60004382106106415760405162461bcd60e51b815260206004820152601f60248201527f4552433230566f7465733a20626c6f636b206e6f7420796574206d696e6564006044820152606401610584565b6001600160a01b03831660009081526008602052604090206106639083611385565b9392505050565b6005546001600160a01b0361010090910416331461069a5760405162461bcd60e51b815260040161058490611f7c565b6106a261145e565b565b6001600160a01b03808216600090815260076020526040902054165b919050565b6106cf33826114f1565b50565b6001600160a01b0381166000908152600860205260408120546106f490610efa565b92915050565b6005546001600160a01b0361010090910416331461072a5760405162461bcd60e51b815260040161058490611f7c565b6106a26000611587565b6001600160a01b0381166000908152600660205260408120546106f4565b6005546001600160a01b036101009091041633146107825760405162461bcd60e51b815260040161058490611f7c565b6106a26115e1565b60004382106107db5760405162461bcd60e51b815260206004820152601f60248201527f4552433230566f7465733a20626c6f636b206e6f7420796574206d696e6564006044820152606401610584565b6106f4600983611385565b60606004805461045c90612000565b6001600160a01b0381166000908152600860205260408120548015610877576001600160a01b0383166000908152600860205260409020610837600183611fe9565b8154811061085557634e487b7160e01b600052603260045260246000fd5b60009182526020909120015464010000000090046001600160e01b031661087a565b60005b6001600160e01b03169392505050565b3360009081526001602090815260408083206001600160a01b03861684529091528120548281101561090c5760405162461bcd60e51b815260206004820152602560248201527f45524332303a2064656372656173656420616c6c6f77616e63652062656c6f77604482015264207a65726f60d81b6064820152608401610584565b6109193385858403610f8b565b5060019392505050565b60006104ed3384846110af565b834211156109805760405162461bcd60e51b815260206004820152601d60248201527f4552433230566f7465733a207369676e617475726520657870697265640000006044820152606401610584565b604080517fe48329057bfd03d55e49b547132e39cffd9c1820ad7b9d4c5307691425d15adf60208201526001600160a01b0388169181019190915260608101869052608081018590526000906109fa906109f29060a0016040516020818303038152906040528051906020012061165c565b8585856116aa565b9050610a05816116d2565b8614610a535760405162461bcd60e51b815260206004820152601960248201527f4552433230566f7465733a20696e76616c6964206e6f6e6365000000000000006044820152606401610584565b610a5d81886114f1565b50505050505050565b83421115610ab65760405162461bcd60e51b815260206004820152601d60248201527f45524332305065726d69743a206578706972656420646561646c696e650000006044820152606401610584565b60007f0000000000000000000000000000000000000000000000000000000000000000888888610ae58c6116d2565b6040805160208101969096526001600160a01b0394851690860152929091166060840152608083015260a082015260c0810186905260e0016040516020818303038152906040528051906020012090506000610b408261165c565b90506000610b50828787876116aa565b9050896001600160a01b0316816001600160a01b031614610bb35760405162461bcd60e51b815260206004820152601e60248201527f45524332305065726d69743a20696e76616c6964207369676e617475726500006044820152606401610584565b610bbe8a8a8a610f8b565b50505050505050505050565b60408051808201909152600080825260208201526001600160a01b0383166000908152600860205260409020805463ffffffff8416908110610c1c57634e487b7160e01b600052603260045260246000fd5b60009182526020918290206040805180820190915291015463ffffffff8116825264010000000090046001600160e01b0316918101919091529392505050565b6005546001600160a01b03610100909104163314610c8c5760405162461bcd60e51b815260040161058490611f7c565b6001600160a01b038116610cf15760405162461bcd60e51b815260206004820152602660248201527f4f776e61626c653a206e6577206f776e657220697320746865207a65726f206160448201526564647265737360d01b6064820152608401610584565b6106cf81611587565b610d048282610d8a565b6002546001600160e01b031015610d765760405162461bcd60e51b815260206004820152603060248201527f4552433230566f7465733a20746f74616c20737570706c79207269736b73206f60448201526f766572666c6f77696e6720766f74657360801b6064820152608401610584565b610d846009610e81836116fa565b50505050565b6001600160a01b038216610de05760405162461bcd60e51b815260206004820152601f60248201527f45524332303a206d696e7420746f20746865207a65726f2061646472657373006044820152606401610584565b610dec6000838361189d565b8060026000828254610dfe9190611fb1565b90915550506001600160a01b03821660009081526020819052604081208054839290610e2b908490611fb1565b90915550506040518181526001600160a01b038316906000907fddf252ad1be2c89b69c2b068fc378daa952ba7f163c4a11628f55a4df523b3ef9060200160405180910390a3610e7d600083836118e8565b5050565b60006106638284611fb1565b60006001600160e01b03821115610ef65760405162461bcd60e51b815260206004820152602760248201527f53616665436173743a2076616c756520646f65736e27742066697420696e20326044820152663234206269747360c81b6064820152608401610584565b5090565b600063ffffffff821115610ef65760405162461bcd60e51b815260206004820152602660248201527f53616665436173743a2076616c756520646f65736e27742066697420696e203360448201526532206269747360d01b6064820152608401610584565b505050565b610f5f610f70846106a4565b610f79846106a4565b836118f3565b60006106638284611fe9565b6001600160a01b038316610fed5760405162461bcd60e51b8152602060048201526024808201527f45524332303a20617070726f76652066726f6d20746865207a65726f206164646044820152637265737360e01b6064820152608401610584565b6001600160a01b03821661104e5760405162461bcd60e51b815260206004820152602260248201527f45524332303a20617070726f766520746f20746865207a65726f206164647265604482015261737360f01b6064820152608401610584565b6001600160a01b0383811660008181526001602090815260408083209487168084529482529182902085905590518481527f8c5be1e5ebec7d5bd14f71427d1e84f3dd0314c0f7b2291e5b200ac8c7c3b925910160405180910390a3505050565b6001600160a01b0383166111135760405162461bcd60e51b815260206004820152602560248201527f45524332303a207472616e736665722066726f6d20746865207a65726f206164604482015264647265737360d81b6064820152608401610584565b6001600160a01b0382166111755760405162461bcd60e51b815260206004820152602360248201527f45524332303a207472616e7366657220746f20746865207a65726f206164647260448201526265737360e81b6064820152608401610584565b61118083838361189d565b6001600160a01b038316600090815260208190526040902054818110156111f85760405162461bcd60e51b815260206004820152602660248201527f45524332303a207472616e7366657220616d6f756e7420657863656564732062604482015265616c616e636560d01b6064820152608401610584565b6001600160a01b0380851660009081526020819052604080822085850390559185168152908120805484929061122f908490611fb1565b92505081905550826001600160a01b0316846001600160a01b03167fddf252ad1be2c89b69c2b068fc378daa952ba7f163c4a11628f55a4df523b3ef8460405161127b91815260200190565b60405180910390a3610d848484846118e8565b60007f00000000000000000000000000000000000000000000000000000000000000004614156112df57507f00000000000000000000000000000000000000000000000000000000000000006104dd565b50604080517f00000000000000000000000000000000000000000000000000000000000000006020808301919091527f0000000000000000000000000000000000000000000000000000000000000000828401527f000000000000000000000000000000000000000000000000000000000000000060608301524660808301523060a0808401919091528351808403909101815260c090920190925280519101206104dd565b8154600090815b818110156113f75760006113a08284611a30565b9050848682815481106113c357634e487b7160e01b600052603260045260246000fd5b60009182526020909120015463ffffffff1611156113e3578092506113f1565b6113ee816001611fb1565b91505b5061138c565b81156114495784611409600184611fe9565b8154811061142757634e487b7160e01b600052603260045260246000fd5b60009182526020909120015464010000000090046001600160e01b031661144c565b60005b6001600160e01b031695945050505050565b60055460ff166114a75760405162461bcd60e51b815260206004820152601460248201527314185d5cd8589b194e881b9bdd081c185d5cd95960621b6044820152606401610584565b6005805460ff191690557f5db9ee0a495bf2e6ff9c91a7834c1ba4fdd244a5e8aa4e537bd38aeae4b073aa335b6040516001600160a01b03909116815260200160405180910390a1565b60006114fc836106a4565b9050600061151f846001600160a01b031660009081526020819052604090205490565b6001600160a01b0385811660008181526007602052604080822080546001600160a01b031916898616908117909155905194955093928616927f3134e8a2e6d97e929a7e54011ea5485d7d196dd5f0ba4d4ef95803e8e3fc257f9190a4610d848284836118f3565b600580546001600160a01b03838116610100818102610100600160a81b031985161790945560405193909204169182907f8be0079c531659141344cd1fd0a4f28419497f9722a3daafe3b4186f6b6457e090600090a35050565b60055460ff16156116275760405162461bcd60e51b815260206004820152601060248201526f14185d5cd8589b194e881c185d5cd95960821b6044820152606401610584565b6005805460ff191660011790557f62e78cea01bee320cd4e420270b5ea74000d11b0c9f74754ebdbfc544b05a2586114d43390565b60006106f461166961128e565b8360405161190160f01b6020820152602281018390526042810182905260009060620160405160208183030381529060405280519060200120905092915050565b60008060006116bb87878787611a4b565b915091506116c881611b38565b5095945050505050565b6001600160a01b03811660009081526006602052604090208054600181018255905b50919050565b8254600090819080156117535785611713600183611fe9565b8154811061173157634e487b7160e01b600052603260045260246000fd5b60009182526020909120015464010000000090046001600160e01b0316611756565b60005b6001600160e01b0316925061176f83858763ffffffff16565b91506000811180156117bb57504386611789600184611fe9565b815481106117a757634e487b7160e01b600052603260045260246000fd5b60009182526020909120015463ffffffff16145b15611829576117c982610e8d565b866117d5600184611fe9565b815481106117f357634e487b7160e01b600052603260045260246000fd5b9060005260206000200160000160046101000a8154816001600160e01b0302191690836001600160e01b03160217905550611894565b85604051806040016040528061183e43610efa565b63ffffffff16815260200161185285610e8d565b6001600160e01b0390811690915282546001810184556000938452602093849020835194909301519091166401000000000263ffffffff909316929092179101555b50935093915050565b60055460ff16156118e35760405162461bcd60e51b815260206004820152601060248201526f14185d5cd8589b194e881c185d5cd95960821b6044820152606401610584565b610f5f565b610f5f838383610f64565b816001600160a01b0316836001600160a01b0316141580156119155750600081115b15610f5f576001600160a01b038316156119a3576001600160a01b0383166000908152600860205260408120819061195090610f7f856116fa565b91509150846001600160a01b03167fdec2bacdd2f05b59de34da9b523dff8be42e5e38e818c82fdb0bae774387a7248383604051611998929190918252602082015260400190565b60405180910390a250505b6001600160a01b03821615610f5f576001600160a01b038216600090815260086020526040812081906119d990610e81856116fa565b91509150836001600160a01b03167fdec2bacdd2f05b59de34da9b523dff8be42e5e38e818c82fdb0bae774387a7248383604051611a21929190918252602082015260400190565b60405180910390a25050505050565b6000611a3f6002848418611fc9565b61066390848416611fb1565b6000807f7fffffffffffffffffffffffffffffff5d576e7357a4501ddfe92f46681b20a0831115611a825750600090506003611b2f565b8460ff16601b14158015611a9a57508460ff16601c14155b15611aab5750600090506004611b2f565b6040805160008082526020820180845289905260ff881692820192909252606081018690526080810185905260019060a0016020604051602081039080840390855afa158015611aff573d6000803e3d6000fd5b5050604051601f1901519150506001600160a01b038116611b2857600060019250925050611b2f565b9150600090505b94509492505050565b6000816004811115611b5a57634e487b7160e01b600052602160045260246000fd5b1415611b65576106cf565b6001816004811115611b8757634e487b7160e01b600052602160045260246000fd5b1415611bd55760405162461bcd60e51b815260206004820152601860248201527f45434453413a20696e76616c6964207369676e617475726500000000000000006044820152606401610584565b6002816004811115611bf757634e487b7160e01b600052602160045260246000fd5b1415611c455760405162461bcd60e51b815260206004820152601f60248201527f45434453413a20696e76616c6964207369676e6174757265206c656e677468006044820152606401610584565b6003816004811115611c6757634e487b7160e01b600052602160045260246000fd5b1415611cc05760405162461bcd60e51b815260206004820152602260248201527f45434453413a20696e76616c6964207369676e6174757265202773272076616c604482015261756560f01b6064820152608401610584565b6004816004811115611ce257634e487b7160e01b600052602160045260246000fd5b14156106cf5760405162461bcd60e51b815260206004820152602260248201527f45434453413a20696e76616c6964207369676e6174757265202776272076616c604482015261756560f01b6064820152608401610584565b80356001600160a01b03811681146106c057600080fd5b803560ff811681146106c057600080fd5b600060208284031215611d74578081fd5b61066382611d3b565b60008060408385031215611d8f578081fd5b611d9883611d3b565b9150611da660208401611d3b565b90509250929050565b600080600060608486031215611dc3578081fd5b611dcc84611d3b565b9250611dda60208501611d3b565b9150604084013590509250925092565b600080600080600080600060e0888a031215611e04578283fd5b611e0d88611d3b565b9650611e1b60208901611d3b565b95506040880135945060608801359350611e3760808901611d52565b925060a0880135915060c0880135905092959891949750929550565b60008060408385031215611e65578182fd5b611e6e83611d3b565b946020939093013593505050565b60008060008060008060c08789031215611e94578182fd5b611e9d87611d3b565b95506020870135945060408701359350611eb960608801611d52565b92506080870135915060a087013590509295509295509295565b60008060408385031215611ee5578182fd5b611eee83611d3b565b9150602083013563ffffffff81168114611f06578182fd5b809150509250929050565b600060208284031215611f22578081fd5b5035919050565b6000602080835283518082850152825b81811015611f5557858101830151858201604001528201611f39565b81811115611f665783604083870101525b50601f01601f1916929092016040019392505050565b6020808252818101527f4f776e61626c653a2063616c6c6572206973206e6f7420746865206f776e6572604082015260600190565b60008219821115611fc457611fc4612035565b500190565b600082611fe457634e487b7160e01b81526012600452602481fd5b500490565b600082821015611ffb57611ffb612035565b500390565b600181811c9082168061201457607f821691505b602082108114156116f457634e487b7160e01b600052602260045260246000fd5b634e487b7160e01b600052601160045260246000fdfea26469706673582212205182cb2543b0639764436ff54e262e316db0c1210d302b18bd7da13d3cbc4ad664736f6c63430008030033dec2bacdd2f05b59de34da9b523dff8be42e5e38e818c82fdb0bae774387a724",
  "devdoc": {
    "kind": "dev",
    "methods": {
      "DOMAIN_SEPARATOR()": {
        "details": "See {IERC20Permit-DOMAIN_SEPARATOR}."
      },
      "allowance(address,address)": {
        "details": "See {IERC20-allowance}."
      },
      "approve(address,uint256)": {
        "details": "See {IERC20-approve}. Requirements: - `spender` cannot be the zero address."
      },
      "balanceOf(address)": {
        "details": "See {IERC20-balanceOf}."
      },
      "checkpoints(address,uint32)": {
        "details": "Get the `pos`-th checkpoint for `account`."
      },
      "decimals()": {
        "details": "Returns the number of decimals used to get its user representation. For example, if `decimals` equals `2`, a balance of `505` tokens should be displayed to a user as `5.05` (`505 / 10 ** 2`). Tokens usually opt for a value of 18, imitating the relationship between Ether and Wei. This is the value {ERC20} uses, unless this function is overridden; NOTE: This information is only used for _display_ purposes: it in no way affects any of the arithmetic of the contract, including {IERC20-balanceOf} and {IERC20-transfer}."
      },
      "decreaseAllowance(address,uint256)": {
        "details": "Atomically decreases the allowance granted to `spender` by the caller. This is an alternative to {approve} that can be used as a mitigation for problems described in {IERC20-approve}. Emits an {Approval} event indicating the updated allowance. Requirements: - `spender` cannot be the zero address. - `spender` must have allowance for the caller of at least `subtractedValue`."
      },
      "delegate(address)": {
        "details": "Delegate votes from the sender to `delegatee`."
      },
      "delegateBySig(address,uint256,uint256,uint8,bytes32,bytes32)": {
        "details": "Delegates votes from signer to `delegatee`"
      },
      "delegates(address)": {
        "details": "Get the address `account` is currently delegating to."
      },
      "getPastTotalSupply(uint256)": {
        "details": "Retrieve the `totalSupply` at the end of `blockNumber`. Note, this value is the sum of all balances. It is but NOT the sum of all the delegated votes! Requirements: - `blockNumber` must have been already mined"
      },
      "getPastVotes(address,uint256)": {
        "details": "Retrieve the number of votes for `account` at the end of `blockNumber`. Requirements: - `blockNumber` must have been already mined"
      },
      "getVotes(address)": {
        "details": "Gets the current votes balance for `account`"
      },
      "increaseAllowance(address,uint256)": {
        "details": "Atomically increases the allowance granted to `spender` by the caller. This is an alternative to {approve} that can be used as a mitigation for problems described in {IERC20-approve}. Emits an {Approval} event indicating the updated allowance. Requirements: - `spender` cannot be the zero address."
      },
      "name()": {
        "details": "Returns the name of the token."
      },
      "nonces(address)": {
        "details": "See {IERC20Permit-nonces}."
      },
      "numCheckpoints(address)": {
        "details": "Get number of checkpoints for `account`."
      },
      "owner()": {
        "details": "Returns the address of the current owner."
      },
      "paused()": {
        "details": "Returns true if the contract is paused, and false otherwise."
      },
      "permit(address,address,uint256,uint256,uint8,bytes32,bytes32)": {
        "details": "See {IERC20Permit-permit}."
      },
      "renounceOwnership()": {
        "details": "Leaves the contract without owner. It will not be possible to call `onlyOwner` functions anymore. Can only be called by the current owner. NOTE: Renouncing ownership will leave the contract without an owner, thereby removing any functionality that is only available to the owner."
      },
      "symbol()": {
        "details": "Returns the symbol of the token, usually a shorter version of the name."
      },
      "totalSupply()": {
        "details": "See {IERC20-totalSupply}."
      },
      "transfer(address,uint256)": {
        "details": "See {IERC20-transfer}. Requirements: - `recipient` cannot be the zero address. - the caller must have a balance of at least `amount`."
      },
      "transferFrom(address,address,uint256)": {
        "details": "See {IERC20-transferFrom}. Emits an {Approval} event indicating the updated allowance. This is not required by the EIP. See the note at the beginning of {ERC20}. Requirements: - `sender` and `recipient` cannot be the zero address. - `sender` must have a balance of at least `amount`. - the caller must have allowance for ``sender``'s tokens of at least `amount`."
      },
      "transferOwnership(address)": {
        "details": "Transfers ownership of the contract to a new account (`newOwner`). Can only be called by the current owner."
      }
    },
    "version": 1
  },
  "userdoc": {
    "kind": "user",
    "methods": {
      "constructor": {
        "notice": "Contract initialization. The `constructor` is executed only once when the contract is created. The `public` modifier makes a function callable from outside the contract."
      },
      "pause()": {
        "notice": "Read only function to retrieve the token balance of a given account. The `view` modifier indicates that it doesn't modify the contract's state, which allows us to call it without executing a transaction."
      }
    },
    "version": 1
  },
  "storageLayout": {
    "storage": [
      {
        "astId": 631,
        "contract": "contracts/Token.sol:Token",
        "label": "_balances",
        "offset": 0,
        "slot": "0",
        "type": "t_mapping(t_address,t_uint256)"
      },
      {
        "astId": 637,
        "contract": "contracts/Token.sol:Token",
        "label": "_allowances",
        "offset": 0,
        "slot": "1",
        "type": "t_mapping(t_address,t_mapping(t_address,t_uint256))"
      },
      {
        "astId": 639,
        "contract": "contracts/Token.sol:Token",
        "label": "_totalSupply",
        "offset": 0,
        "slot": "2",
        "type": "t_uint256"
      },
      {
        "astId": 641,
        "contract": "contracts/Token.sol:Token",
        "label": "_name",
        "offset": 0,
        "slot": "3",
        "type": "t_string_storage"
      },
      {
        "astId": 643,
        "contract": "contracts/Token.sol:Token",
        "label": "_symbol",
        "offset": 0,
        "slot": "4",
        "type": "t_string_storage"
      },
      {
        "astId": 501,
        "contract": "contracts/Token.sol:Token",
        "label": "_paused",
        "offset": 0,
        "slot": "5",
        "type": "t_bool"
      },
      {
        "astId": 387,
        "contract": "contracts/Token.sol:Token",
        "label": "_owner",
        "offset": 1,
        "slot": "5",
        "type": "t_address"
      },
      {
        "astId": 1933,
        "contract": "contracts/Token.sol:Token",
        "label": "_nonces",
        "offset": 0,
        "slot": "6",
        "type": "t_mapping(t_address,t_struct(Counter)3944_storage)"
      },
      {
        "astId": 1262,
        "contract": "contracts/Token.sol:Token",
        "label": "_delegates",
        "offset": 0,
        "slot": "7",
        "type": "t_mapping(t_address,t_address)"
      },
      {
        "astId": 1268,
        "contract": "contracts/Token.sol:Token",
        "label": "_checkpoints",
        "offset": 0,
        "slot": "8",
        "type": "t_mapping(t_address,t_array(t_struct(Checkpoint)1253_storage)dyn_storage)"
      },
      {
        "astId": 1272,
        "contract": "contracts/Token.sol:Token",
        "label": "_totalSupplyCheckpoints",
        "offset": 0,
        "slot": "9",
        "type": "t_array(t_struct(Checkpoint)1253_storage)dyn_storage"
      },
      {
        "astId": 6456,
        "contract": "contracts/Token.sol:Token",
        "label": "balances",
        "offset": 0,
        "slot": "10",
        "type": "t_mapping(t_address,t_uint256)"
      }
    ],
    "types": {
      "t_address": {
        "encoding": "inplace",
        "label": "address",
        "numberOfBytes": "20"
      },
      "t_array(t_struct(Checkpoint)1253_storage)dyn_storage": {
        "base": "t_struct(Checkpoint)1253_storage",
        "encoding": "dynamic_array",
        "label": "struct ERC20Votes.Checkpoint[]",
        "numberOfBytes": "32"
      },
      "t_bool": {
        "encoding": "inplace",
        "label": "bool",
        "numberOfBytes": "1"
      },
      "t_mapping(t_address,t_address)": {
        "encoding": "mapping",
        "key": "t_address",
        "label": "mapping(address => address)",
        "numberOfBytes": "32",
        "value": "t_address"
      },
      "t_mapping(t_address,t_array(t_struct(Checkpoint)1253_storage)dyn_storage)": {
        "encoding": "mapping",
        "key": "t_address",
        "label": "mapping(address => struct ERC20Votes.Checkpoint[])",
        "numberOfBytes": "32",
        "value": "t_array(t_struct(Checkpoint)1253_storage)dyn_storage"
      },
      "t_mapping(t_address,t_mapping(t_address,t_uint256))": {
        "encoding": "mapping",
        "key": "t_address",
        "label": "mapping(address => mapping(address => uint256))",
        "numberOfBytes": "32",
        "value": "t_mapping(t_address,t_uint256)"
      },
      "t_mapping(t_address,t_struct(Counter)3944_storage)": {
        "encoding": "mapping",
        "key": "t_address",
        "label": "mapping(address => struct Counters.Counter)",
        "numberOfBytes": "32",
        "value": "t_struct(Counter)3944_storage"
      },
      "t_mapping(t_address,t_uint256)": {
        "encoding": "mapping",
        "key": "t_address",
        "label": "mapping(address => uint256)",
        "numberOfBytes": "32",
        "value": "t_uint256"
      },
      "t_string_storage": {
        "encoding": "bytes",
        "label": "string",
        "numberOfBytes": "32"
      },
      "t_struct(Checkpoint)1253_storage": {
        "encoding": "inplace",
        "label": "struct ERC20Votes.Checkpoint",
        "members": [
          {
            "astId": 1250,
            "contract": "contracts/Token.sol:Token",
            "label": "fromBlock",
            "offset": 0,
            "slot": "0",
            "type": "t_uint32"
          },
          {
            "astId": 1252,
            "contract": "contracts/Token.sol:Token",
            "label": "votes",
            "offset": 4,
            "slot": "0",
            "type": "t_uint224"
          }
        ],
        "numberOfBytes": "32"
      },
      "t_struct(Counter)3944_storage": {
        "encoding": "inplace",
        "label": "struct Counters.Counter",
        "members": [
          {
            "astId": 3943,
            "contract": "contracts/Token.sol:Token",
            "label": "_value",
            "offset": 0,
            "slot": "0",
            "type": "t_uint256"
          }
        ],
        "numberOfBytes": "32"
      },
      "t_uint224": {
        "encoding": "inplace",
        "label": "uint224",
        "numberOfBytes": "28"
      },
      "t_uint256": {
        "encoding": "inplace",
        "label": "uint256",
        "numberOfBytes": "32"
      },
      "t_uint32": {
        "encoding": "inplace",
        "label": "uint32",
        "numberOfBytes": "4"
      }
    }
  }
}